:100000000C9408040C944F040C944F040C944F046B
:100010000C944F040C944F040C944F040C944F0414
:100020000C944F040C944F040C94F1310C94C33293
:100030000C94792C0C944F040C944F040C944F04A2
:100040000C944F040C944F040C944F040C944F04E4
:100050000C944F040C94D22C0C944F040C944F0429
:100060000C944F040C944F040C944F040C944F04C4
:100070000C944F040C944F040C944F040C944F04B4
:100080000C944F040C944F040C944F040C944F04A4
:100090000C944F040C944F040C944F040C944F0494
:1000A0000C944F040C944F040C944F043308330801
:1000B000450845083C084508450845083308330805
:1000C00041084508450841088F088F08BB08BB0850
:1000D0004509950A950A950A6109CB09DD09DD09EB
:1000E000840A950A950A8D0AD61BF91B011CF61C79
:1000F000F61C3D1C4C1C5B1CF61C661C711C7C1CFD
:10010000891C8C1C303357334F3457334F34A3334F
:10011000C6334F341D342C3429001E001F0020002C
:1001200021002200230024002500260027002D00A6
:100130002E0031002A002B0014001A0008001500C0
:1001400017001C0018000C00120013002F003000D4
:1001500031000000390004001600070009000A0001
:100160000B000D000E000F003300340028000000CB
:100170000000E10064001D001B00060019000500DE
:1001800011001000360037003800E5000151000072
:10019000E000E300E2000000000000002C0000008E
:1001A000000000000000E600E700E400000001009D
:1001B0003A003B003C003D003E003F004000410053
:1001C000420043004400450001004C0001000100D2
:1001D0000100010001000100010001000100010017
:1001E000010001000100005C0000010001000100AD
:1001F00001000100010001000100010001000100F7
:1002000001000100000000000100010001000100E8
:1002100001000100010001000100010001000100D6
:1002200001000100000001000100010000000000C9
:1002300000000100000000000000000001000100BB
:1002400001000000010001000100010001000100A7
:100250000100010001000100010001000100010096
:100260000100010001000100010001000100010086
:100270000100010001000100010001000100000077
:100280000100010001000100010001000100010066
:100290000100010001000100010000000000010058
:1002A0000100010001000100010001000100010046
:1002B0000100010001000100010000000100010037
:1002C000010000000000000001000000000000002C
:1002D0000000010001000100000001000100010018
:1002E0000100010001000100010001000100010006
:1002F00001000100010001000100010001000100F6
:1003000001000100010001000100010001000100E5
:1003100001000100000001000100010001000100D6
:1003200001000100010001000100010001000100C5
:1003300000000000010001000100010001000100B7
:1003400001000100010001000100010001000100A5
:100350000000010001000100000000000000010099
:10036000000000000000000001000100010000008A
:1003700000000000000000002A2B28000000000000
:100380000000000000000000000000290000000044
:100390002C1E3420212224342627252E362D3738B2
:1003A000271E1F202122232425263333362E3738BB
:1003B0001F0405060708090A0B0C0D0E0F10111279
:1003C000131415161718191A1B1C1D2F3130232D45
:1003D000350405060708090A0B0C0D0E0F10111243
:1003E000131415161718191A1B1C1D2F3130354CF4
:1003F00000000000000000000000000000000000FD
:1004000000000000000000000000000000000000EC
:10041000000000007E0F00D4FFFFFFC7000000783F
:10042000FD377A585A000004E6D6B446020021018E
:1004300016000000742FE5A3E00732021E5D003DA8
:100440008889C65436C3174FE4E46873BBAC150DF6
:10045000FDC0E62E7497B8F482EBB1365AD7197303
:10046000A7869E24B0E7EEB960592F02FEFA7319F1
:10047000FC45A24D0124C52D8916AA7355A02CD286
:10048000034A922932E25CD3CDB0CE7CC4997293F8
:1004900076544461BE0DDA90697FAB5F5556419842
:1004A000898E30AD9812BF434A3173925BC697A5CF
:1004B0002B672CBA52A4174250F3C91026516CA6D0
:1004C000AC93D31D2B6D51D1A9EA33BB74ADB92CBC
:1004D0000D54FBFE2C85601BCA5FEF4A8C64A2AAF8
:1004E0008366ADAD4DC0285250782E508F5E8697F2
:1004F000F7FEC1FCB687AC54E1822B1152447AB8A6
:100500003E32B3D9D38DB8688EAEFFE546B01176D2
:100510006EB251168576FB48E07FF0F7B7FAB44922
:10052000BB559DE77E504EC440640DFC938C455BEB
:1005300056A07DF2D18B78887BC6F72E9B604C5DF0
:10054000A36916D6C8DF98E00ABD9B3D8FA5EA6F68
:10055000DD071D5AEB2BA870EA90C6C6EB0BC385CE
:10056000B30088087EDB2ED765F33EB78DAE253904
:1005700099DCF75EC47D693D2910CBF3F3F30631B6
:10058000EB555274ABD63A04CE6359904F0BB6D1AB
:10059000B76343B3A41B9BD16F6DD0803DA454823D
:1005A000222FD4E551CA1F018B15701526BB8B4E27
:1005B000F2365FECA88AD25E07B12CC7EAE27E3F32
:1005C000B35007244A198045DD37234713ED5A9865
:1005D00016844891E702B178FE5737A4EA6BE687A4
:1005E000D57AA458A944AD162FD3B7DC23D906D5A4
:1005F0005EB6ACDBFF9A3FF8296E0DE1A7EEB6EBD5
:10060000213DDA753AAFC37B3689D067150386542E
:1006100055BCBF157D7D08C4C57D8E1AB7E25D301F
:100620003ADDEE0801C05E4EB4313FAC6622C4959F
:10063000D7C8214A26713C40FEF8E773C3D038A3DF
:10064000A609CEC07750241C523528DDF034FB5368
:10065000DD96FABFA36B7AE6374DA47EB6000000A4
:100660003601C7A997C2AAA40001BA04B30E0000BC
:10067000708EDD88B1C467FB020000000004595A87
:100680000100010075040000020002007104000076
:100690000300010076040000040002005B04062051
:1006A0000500010077040000060002005D04000060
:1006B0000700020073040000080001007804000035
:1006C0001200020079040000130002007B04000005
:1006D0001C037600690061006C003A006600360079
:1006E0003400630032006200330063000000100336
:1006F00050006C00610069006E00360030000000A0
:1007000008034D004B0044000000040309040902E3
:100710005B00030100A0FA090400000103010100CD
:100720000921110100012240000705810308000A88
:100730000904010002030000000921110100012247
:1007400022000705820320000107050303200001A2
:100750000904020001030000000921110100012227
:1007600032000705840320000A1201000200000085
:10077000084C4760500100010203010660FF096157
:10078000A1010962150026FF009520750881020964
:1007900063150026FF00952075089102C005010928
:1007A00080A101850319012AB700150126B700951C
:1007B0000175108100C0050C0901A1018504190112
:1007C0002AA002150126A002950175108100C0051E
:1007D000010906A101050719E029E7150025019582
:1007E0000875018102950175088101050719002925
:1007F000FF150026FF009506750881000508190100
:100800002905950575019102950175039101C000B7
:1008100011241FBECFEFDAE0DEBFCDBF04B603FE6A
:1008200027C080918E0490918F04A0919004B09184
:1008300091048730904BA740B04BD1F410928E04B6
:1008400010928F04109290041092910414BE84B7F9
:10085000877F84BF0FB6F894A89580916000886167
:1008600080936000109260000FBEE0E0F8E309950D
:1008700011E0A0E0B1E0E4E2FAE602C005900D92DA
:10088000A63AB107D9F724E0A6EAB1E001C01D926B
:10089000AE38B207E1F70E94CC170C9410350C94D7
:1008A00000009C013A9521153F4130F5BC016627B7
:1008B0007270AC01442754709C012227387094FF59
:1008C0000FC090FF02C080E101C080E0672B09F0FB
:1008D0008062452B09F08064232B79F080680895AD
:1008E000892F8170672B09F08260452B09F08460A5
:1008F000232B19F08860089580E00895CF93DF934B
:10090000EC01805E9109089710F0209731F4CE0138
:100910000E9451040E94EF0705C0CE010E945104BD
:100920000E94FD078C2FDF91CF910C945107CF933C
:10093000DF93EC010E949F07CE01805E910908972A
:1009400010F0209739F4CE010E945104DF91CF912D
:100950000C94F607CE010E945104DF91CF910C94C4
:10096000040881E0089581E008950C94B30408958B
:100970000C94B7041F93CF93DF9300D000D01F9245
:10098000CDB7DEB749835A836B833091A801898143
:100990009A81311114C0662359F0222349F00E9434
:1009A000200C182F682F89819A810E94C30B03C0E5
:1009B0000E94F00B182F69817A81812F04C00E9458
:1009C000200C69817A810F900F900F900F900F90FB
:1009D000DF91CF911F910C94F51EFC01262F86818B
:1009E0009781009739F440815181628173818481BC
:1009F0000C94BA040895CF93DF93EC0161E00E9458
:100A0000ED04BE01DF91CF910C940B27CF93DF93C0
:100A1000EC0160E00E94ED04BE01DF91CF910C94E7
:100A2000B804E1E0F0E0DF0102C0AA0FBB1F6A9545
:100A3000E2F7BD01DF0102C0AA0FBB1F4A95E2F732
:100A4000AD01462B01C0EE0F2A95EAF7942F9823AB
:100A5000491302C08E2B0895E0958E230895242F0C
:100A6000462F682F8091C9010E9411050C94800BBC
:100A70000E944A160E94B5060C947D160E942C2BEB
:100A80000E94C7260E94B4230C94791680E00C942F
:100A9000B60608950C9449050E9421080E944A0553
:100AA0002FEF84E39CE0215080409040E1F700C0AC
:100AB00000000C94F82C0F931F93CF93DF93EC015D
:100AC0008B010E94872AB801CE010E943618882324
:100AD00009F459C0B801CE010E94041D882309F40D
:100AE00052C0B801CE010E94B504882309F44BC05E
:100AF000B801CE010E94CF2A882309F444C0B8016E
:100B0000CE010E94ED238823F1F1B801CE010E94AD
:100B1000CF298823C1F1B801CE010E94502188233A
:100B200091F1B801CE010E94EB28882361F1F80110
:100B30008281882309F1CA358DE5D807C1F050F4C8
:100B4000C115FCE5DF0781F0CE3DDC45A9F40E942C
:100B5000331319C0CB35EDE5DE0761F0CC35DD454B
:100B600059F40E94771208C00E944C050CC00E94E4
:100B7000801202C00E948312C801DF91CF911F91A1
:100B80000F910C94B10480E0DF91CF911F910F91F0
:100B90000895CF93DF93EC0161E00E94ED04BE0164
:100BA000DF91CF910C945B050C9449050E94872B33
:100BB0000E94B6060C94D405DF92EF92FF920F9339
:100BC0001F93CF93DF93E82FF0E0E059FC4FD490D0
:100BD000282F26952695269530E0F901E05FFB4FFA
:100BE0000491877010E0082E02C0159507950A94AD
:100BF000E2F701701127F901E050FC4FE490F12C6D
:100C0000082E02C0F594E7940A94E2F791E0E922F5
:100C1000FF24F901E051FC4FC491D0E002C0D5950A
:100C2000C7958A95E2F7C170DD270115110519F006
:100C300081EE0E945107E114F10419F086EE0E9442
:100C400051078D2D0E94E207EF2819F086EE0E94D1
:100C50009F07012B19F081EE0E949F07CD2B51F0C9
:100C60008CE2DF91CF911F910F91FF90EF90DF9079
:100C70000C94E207DF91CF911F910F91FF90EF90BD
:100C8000DF900895EF92FF920F931F93CF93DF931E
:100C9000EC01162F0AE08881882309F455C08130C1
:100CA00009F043C08981813041F47E0182E0E80E81
:100CB000F11C8A810E94E20709C0823049F47E015A
:100CC000E2E0EE0EF11C8A810E945107E7012FC07D
:100CD000833041F47E01F2E0EF0EF11C8A810E9424
:100CE0009F07F4CF843011F0219621C02A812296EB
:100CF00080E090E030E0205331092A30310558F48B
:100D0000089FA001099F500D1124C901840F951F50
:100D100021962881EFCF009751F0EFE9FFE031975E
:100D2000F1F700C000000197F6CF0E94DC05219684
:100D3000812F882309F4AFCFEFE9FFE03197F1F776
:100D400000C000008150F5CFDF91CF911F910F912E
:100D5000FF90EF90089560E00C94420608950C9483
:100D6000AE0681E008950C94B1060895CF93C82F84
:100D70000E94AF068C2F0E94B306CF910895009772
:100D800041F0EFE9FFE03197F1F700C00000019773
:100D9000F6CF08950F931F93CF93DF93CDB7DEB7B0
:100DA0002D970FB6F894DEBF0FBECDBF942F4987A5
:100DB000252F5A876B877C878D874C855D85452BD2
:100DC00031F02F3F31F481E09F3F19F403C081E0FF
:100DD00001C080E080FD09C08091A9019091AA0125
:100DE00001969093AA018093A9018B8581110E949D
:100DF00086118E010F5F1F4F88E0F80111928A95CE
:100E0000E9F785E0FE013996D80101900D928A95A7
:100E1000E1F78091F40382FD12C080915D0490910E
:100E20005E04892B61F00E944211882319F082E050
:100E30000E9445120E941E1181110E94B9119981D0
:100E40008A812C813D81232B31F08F3F31F481E069
:100E50009F3F19F403C081E001C080E080FF0BC018
:100E600029813A814B815C816D817E818F8198855A
:100E70000E94661005C0C8010E94FB048111F0CFDA
:100E80002D960FB6F894DEBF0FBECDBFDF91CF9188
:100E90001F910F910895FC01808191810E944D0C5A
:100EA0000895CF93882309F448C0C82F8CEF8C0F86
:100EB000813AD0F46C2F80910001909101010E9441
:100EC000D62B882349F06C2F80910001909101016D
:100ED0000E940E2C0E94C7116C2F809100019091EE
:100EE00001010E940C2C0CC080E28C0F883058F459
:100EF000C77081E001C0880FCA95EAF70E946611A9
:100F0000CF910C94C711EBE5EC0FE33040F4F0E027
:100F1000E15BFE4F808190E0CF910C949E2BC85AEC
:100F2000C73158F4EC2FF0E0EE0FFF1FEF5DFE4FDE
:100F300080819181CF910C94B42BCF910895882317
:100F400049F1682F8CEF860F813A38F480910001C7
:100F5000909101010E940E2C0CC080E2860F883017
:100F600050F4677081E001C0880F6A95EAF70E942B
:100F70006C110C94C7118BE5860F833020F480E050
:100F800090E00C949E2B685A673120F480E090E04A
:100F90000C94B42B08951F93CF93DF93182FEB017C
:100FA0000E945107209741F08FE99FE00197F1F7E8
:100FB00000C000002197F6CF812FDF91CF911F91C4
:100FC0000C949F07893329F460917B0470917C0411
:100FD00004C06091790470917A040C94CB07882343
:100FE00021F00E9466110C94C7110895882321F006
:100FF0000E946C110C94C7110895882321F00E945F
:1010000079110C94C7110895882321F00E947F1153
:101010000C94C711089580E090E00E949E2B80E020
:1010200090E00E94B42B0E9486110E9496110C94AD
:10103000C71180910001909101010E94102C0C9425
:101040000B080E9473110C941908E92FE295EF70B8
:101050004E2F50E0FA013297EE30F105B0F4EA5A23
:10106000FF4F0C948334803F91F018F4883E68F46D
:101070000EC0843F51F40BC0883E48F0813F29F4F4
:1010800006C093FB882780F9089580E0089581E0E9
:101090000895FC0186819781009719F00E943F1402
:1010A00004C0808191810E944D0C0E942508089502
:1010B000BF92CF92DF92EF92FF920F931F93CF9345
:1010C000DF937C01EB01FC01D280058102950F705A
:1010D0000E945C118823B9F0DD20A9F08D2F807F5C
:1010E000803421F080E28C0F883068F08091F40326
:1010F00082FD09C082E00E9445120E945C1191E0CD
:10110000C82EC92601C0C12CBD2EB2948FE0B822D2
:101110008B2D90E0FC01EC59FF4F0C9483341D2F74
:101120001F708D2F807F11F01295107FDD2099F0B8
:10113000112309F4C8C180E28C0F883010F0C1116E
:1011400004C0812F0E94661103C0812F0E94791173
:101150000E94C711B8C18C2F0E949F07112309F468
:10116000E4C180E28C0F883048F1CC2339F1812F23
:101170000E947F1126C01D2F1F708D2F807F80320F
:1011800011F01295107FCC2321F0C13009F451C029
:101190005AC08091F40382FF17C0DD2049F011236B
:1011A00029F0812F0E9466110E94C71180E08CC136
:1011B00080E00E949F07112309F4B7C1812F0E948C
:1011C0006C110E94C711B1C1DD20D1F00023A1F044
:1011D000013031F40E949911812B0E94A111A5C107
:1011E00080917704823040F0081306C00E94B91144
:1011F000812F0E940B123FC00E949911812B3CC08D
:101200000023A1F080917704013059F4823008F472
:101210008CC10E946311812309F487C10E941412BA
:1012200005C0823018F0081709F47FC10E94B91177
:1012300028C0DD2021F0063008F077C11CC0053041
:1012400008F073C11EC0DD20D1F00023A1F020E022
:10125000F701408151816281738184810E94BA04C7
:10126000B7010E94042181112EC1F701858180FF01
:101270002AC18F708583812F0E94EF0756C101110B
:101280002DC1812F0E94F60750C18D2F869586951E
:10129000837019F0813059F048C1DD2019F0CE017A
:1012A000937002C080E090E00E949E2B46C1DD203A
:1012B00019F0CE01937002C080E090E00E94B42B40
:1012C0003CC18D2F837081F5D11033C14C2F4295D5
:1012D00046954770440F440F2C2F2F70042E01C0E9
:1012E000220F0A94EAF7C4FF08C08FE090E001C023
:1012F000880F4A95EAF7809501C080E09D2F96956A
:1013000096959370822B923049F058F4913019F0F1
:101310000E94740B0EC10E946F0B0BC10E94790BCF
:1013200008C10E946D0B05C1DD2019F08D2F817061
:1013300001C08695882309F4FCC04C2F4295469540
:101340004770440F440F2C2F2F70042E01C0220F22
:101350000A94EAF7C4FF08C08FE090E001C0880F4C
:101360004A95EAF7809501C080E09D2F9695969565
:101370009370822B923049F058F4913019F00E940A
:10138000B80BD7C00E94B30BD4C00E94BD0BD1C014
:101390000E94800BCEC01D2F1F70DD2039F0812FE1
:1013A0000E94910B8C2F0E94EF07C3C08C2F0E94CC
:1013B000F607812F0E949C0BBCC0C23FC9F028F4E5
:1013C000C03F41F0C13F41F17AC0C33FB9F0C43FD3
:1013D000F9F075C0DD2021F0053008F0A6C003C08B
:1013E000063008F0A2C08D2F8F710E94A80B9DC0FF
:1013F0008D2F8F71DD2009F46CC083C0DD2029F0B2
:101400008D2F8F710E94890B90C00E94860B8DC01A
:101410008091F40382FF06C08D2F8F71DD2009F4C7
:1014200070C057C0809177048230A0F1DD20E1F0D8
:101430000E941B110E946C110E943E11843039F4ED
:101440000E943C128D2F8F710E949C0B6DC0809169
:101450007704081708F068C01D2F1F71812F0E94A4
:10146000910B63E0812F0FC00E941B110E94661137
:1014700080917704081750F00E943C120E941412C9
:1014800064E08D2F8F710E9420124EC081E00E9477
:1014900045124AC0DD2051F01D2F1F71812F0E947F
:1014A000910B63E0812F0E9420123FC081E00E94D7
:1014B00045120230D0F182E00E94451236C0DD2094
:1014C00059F0002321F08C2F0E9451072EC08D2F40
:1014D0008F710E94910B29C0002389F0C93329F430
:1014E00080917B0490917C0404C080917904909158
:1014F0007A040E94BF068C2F0E949F0716C08D2F72
:101500008F710E949C0B11C04D2F4F706C2FC70123
:101510000E9433140E947B0C10C04D2F4F706C2F13
:10152000C7010E94361409C0C12C88EF8B0D84308E
:1015300020F40E94872B0E94B606CE010E94250847
:10154000811105C01092AA011092A9011FC0DD20CF
:1015500019F00111F7CF1AC00111F4CF20E0F70103
:10156000408151816281738184810E94BA04B701F4
:101570000E940F21882331F38091A9019091AA0143
:10158000029701F78C2F0E94E207DCCFCC20D1F02C
:101590000E943E1180FD16C0F70112820E94381190
:1015A0000E94910BC7010E940B0B0E943811DF9122
:1015B000CF911F910F91FF90EF90DF90CF90BF9050
:1015C0000C949C0BDF91CF911F910F91FF90EF90A6
:1015D000DF90CF90BF9008950F931F93CF93DF9329
:1015E000EC018E819F81009719F00E943F1405C085
:1015F000688179818A810E94580C8C010E94C20BFB
:101600000E94610BB801CE010E945808DF91CF9172
:101610001F910F910895CF93DF93EC0198818981F9
:101620002B813C81232B31F08F3F31F481E09F3FB0
:1016300019F403C081E001C080E080FD1DC0CE012F
:101640000E94C905811110C00E945C118823A1F07D
:101650008A81882389F08091F40382FD0DC082E0A5
:10166000DF91CF910C944512CE010E94EC0ACE017D
:10167000DF91CF910C940605DF91CF910895CF9320
:10168000DF9300D000D01F92CDB7DEB70F900F9040
:101690000F900F900F90DF91CF910895CF93DF932C
:1016A000CDB7DEB728970FB6F894DEBF0FBECDBF1B
:1016B00028960FB6F894DEBF0FBECDBFDF91CF9155
:1016C0000895089508950C94620B0C94630B0E9486
:1016D000650B8093CA010C940B080C94670B9091D6
:1016E000CA01892B0C94670B9091CA0189230C9431
:1016F000670B9091CA0189270C94670B0C94620BBD
:101700000E947E0B8093C9010C940B0880E00C941E
:10171000800B91E001C0990F8A95EAF7892F0C940C
:10172000800B21E030E001C0220F8A95EAF780911A
:10173000C901822B0C94800B21E030E001C0220F04
:101740008A95EAF720958091C90182230C94800B39
:1017500021E030E001C0220F8A95EAF78091C901AB
:1017600082270C94800B9091C901892B0C94800BDB
:101770009091C90189230C94800B9091C90189270C
:101780000C94800B08959E3F51F12FE0929F800DA5
:101790001124E82FE695E695E695877051E001C0A3
:1017A000550F8A95EAF783E0E89FF0011124E5558B
:1017B000FE4F20E030E070E04081CB01022E02C0FD
:1017C000969587950A94E2F7817081958427852301
:1017D000842781932F5F3F4F2330310569F70895A8
:1017E0009E3F61F12FE0929F800D1124682F669536
:1017F00066956695982F977083E0689FB0011124D5
:1018000040E050E080E0FB01E40FF51FE555FE4F9E
:10181000208130E0092E02C0369527950A94E2F720
:1018200021703327042E01C0220F0A94EAF7822B7D
:101830004F5F5F4F4330510531F7089580E00895C1
:10184000CF92DF92FF920F931F93CF93DF936C01A0
:101850000091C9018091CA01082BC7E0D0E010E0D7
:10186000C8010C2E02C0959587950A94E2F780FD79
:1018700004C02197A8F7F12C07C0FC2EB6018C2FCD
:101880000E9454150197A9F38F2DDF91CF911F91DD
:101890000F91FF90DF90CF900895CF93DF93EC01ED
:1018A0000E94200CBE010E945415DF91CF91089533
:1018B0001F93CF93DF93EB019091A801992321F01F
:1018C000CB010E944D0C13C0882349F0CB010E942C
:1018D000200C182F682FCE010E94C30B04C0CB012F
:1018E0000E94F00B182FBE01812F0E945415DF912A
:1018F000CF911F910895EF92FF920F931F93CF9373
:10190000DF938C01892B09F46CC0F12CEE24E39455
:10191000E8012196F8018491843740F4843008F07E
:1019200051C0813081F0823019F15BC0853709F4F4
:1019300044C0A8F19CE7980F903708F052C08F7709
:101940000E949F0741C00E5F1F4FFE01849190E2ED
:10195000980F983050F48770FE2D01C0FF0F8A95C4
:10196000EAF78F2F0E94891114C00E9451072DC0E1
:101970000E5F1F4FFE01849190E2980F983060F443
:101980008770FE2D01C0FF0F8A95EAF78F2F0E9406
:101990008F110E94C71119C00E949F0716C00E5FC9
:1019A0001F4FFE01C491CC2381F08FE99FE0019786
:1019B000F1F700C00000C150F6CF0E5F1F4FFE01CF
:1019C000F49003C00E9451078E018F2D882309F4E3
:1019D0009FCFEFE9FFE03197F1F700C000008150A1
:1019E000F5CFDF91CF911F910F91FF90EF90089568
:1019F000CF93DF93C091CB018091CC01C817B1F098
:101A0000D0E0FE0183E0EE0FFF1F8A95E1F7E3537C
:101A1000FE4F2081318142815381648175818681AD
:101A200097810E944E0B2196C770E6CFDF91CF9130
:101A3000089520910D0230910E0240910F025091B5
:101A40001002609111027091120280911302909124
:101A500014020C944E0B2091CB019091CC012917CC
:101A6000B1F030E0F90153E0EE0FFF1F5A95E1F7B6
:101A7000E353FE4F5181561306C05081581303C0E3
:101A80005281541306C02F5F3F4F2770E8CF80E08C
:101A9000089581E00895EF92FF920F931F93CF93E3
:101AA000DF938091120282958F7009F061C080915E
:101AB0000F02882309F45CC0C091CB018091CC0156
:101AC000C81709F455C090910D0240910E02209163
:101AD0001002309111022115310531F04F3F31F4E0
:101AE00081E09F3F19F403C081E001C080E0D0E0B5
:101AF00080FD3BC08E0183E0000F111F8A95E1F746
:101B0000F801E353FE4F818184132FC08081891334
:101B10002CC08281811129C0E380F480E21AF30A8B
:101B200060E08DE092E00E94ED046DE072E00E94C2
:101B3000FB20E816F906C8F4809112028F708061CC
:101B400080931202F801EE52FE4F80818F70806107
:101B500080838DE092E00E940B0BDF91CF911F916B
:101B60000F91FF90EF900C94F80C2196C770A6CFC0
:101B7000DF91CF911F910F91FF90EF9008954F92B9
:101B80005F926F927F928F929F92AF92BF92CF920D
:101B9000DF92EF92FF920F931F93CF93DF93CDB716
:101BA000DEB765970FB6F894DEBF0FBECDBF8C01D0
:101BB00085E0F801DE01519601900D928A95E1F7DA
:101BC000D8014C9011965C90119712966C901297D8
:101BD0001396ED90FC90149760E08DE092E00E94E7
:101BE000ED046C0190910D0280910E022091100283
:101BF000309111022115310531F08F3F31F481E030
:101C00009F3F19F403C081E001C080E080FD2CC239
:101C10008DE0A82E82E0B82E70900F024701821A44
:101C2000930A60E0772009F497C1C5010E94ED0492
:101C3000B5010E94FB2020911202207F8816990690
:101C400008F030C190910D0230910E0240911002C7
:101C5000509111022111B5C0452B31F03F3F31F4B5
:101C600081E09F3F19F403C081E001C080E080FD66
:101C700025C0F8018181831321C0808189131EC092
:101C80002091130230911402868197812817390719
:101C9000A9F4762C611012C0809112028F708061BD
:101CA000809312020E94190D8DE092E00E940B0BAE
:101CB00080911202D80115968C93F0C1B801C6012B
:101CC0000E94FB20843F914020F0E114F10441F494
:101CD0000EC0B801C6010E9400218111F6CF23C0B9
:101CE000EFEF5E1206C081E04E1203C003C081E038
:101CF00001C080E080FD03C081E0862502C080E055
:101D000090E080FF10C0462D652D842D0E942B0D84
:101D1000882349F08DE092E00E940B0BEDE0F2E0A9
:101D200088E0DF01CFC0EF2839F0BFEF5B1206C0BB
:101D300081E04B1203C003C081E001C080E080FD60
:101D400003C081E0862502C080E090E0E82FE170CA
:101D5000FE2E80FF2CC0462D652D842D0E942B0D5C
:101D6000782E811124C0498A5A8A89899A890E94C9
:101D70004D0C292F22952F70223018F0243090F42A
:101D800005C09F7059F0811109C088C19F7031F062
:101D9000D80115969C91907F09F480C1805E8830AF
:101DA00008F47CC1C8010E940B0B7F2C77C1762CF4
:101DB000662009F473C1809112028160809312023F
:101DC00086C0452B31F03F3F31F481E09F3F19F44D
:101DD00003C081E001C080E080FD16C0F801818170
:101DE000831312C0808189130FC020911302309198
:101DF0001402868197812817390731F4611004C0D5
:101E0000809112028583FFC0C8010E94490888237F
:101E100009F442C0662009F43FC020911202822FCB
:101E200082958F7090E00297A4F080910D029091BE
:101E30000E029A8789871B86FD86EC862E87809105
:101E4000130290911402988B8F87CE0109960E94FD
:101E50000B0B88E0F801ADE0B2E001900D928A959D
:101E6000E1F70E944B0D0E94190D19C090910D02CF
:101E700020910E024091100250911102452B49F120
:101E80002F3F49F581E09F3F31F580FF26C0C80113
:101E90000E944908811141C0C8010E940B0B7724A0
:101EA0007394FCC02111E2CF7E2DFD8AEC8AA20141
:101EB000662D8D890E943F0B8DE092E00E940B0BF6
:101EC00088E0D5011D928A95E9F70E94190D712CC1
:101ED000E5C081E0DACF80E0D8CFF80181818213BC
:101EE000D6CF80818913D3CF209113023091140271
:101EF000868197812817390751F66110C8CF8091E4
:101F000012028583C8010E940B0B88E0EDE0F2E02D
:101F1000DF011D928A95E9F7C1C0662009F4BCCFA4
:101F200020911202822F82958F7090E002970CF41C
:101F300090CF80910D0290910E029A8389831B822B
:101F4000FD82EC822E838091130290911402988777
:101F50008F83CE0101967BCF8DE092E00E94ED044D
:101F60006DE072E00E94FB208816990608F06EC0B2
:101F7000762C662009F490CF90910D0220910E02EC
:101F80004091100250911102452B31F02F3F31F456
:101F900081E09F3F19F403C081E001C080E080FD33
:101FA00047C0F8018181821343C08081891340C0FA
:101FB00020911302309114028681978128173907E6
:101FC000B9F5B801C6010E940921811128C02091EC
:101FD000120220FD24C0822F82958F70482F50E07E
:101FE00041155105E1F0D80115962C9315974F3006
:101FF000510549F08F5F982F9295907F822F8F70B7
:10200000892B15968C93C8010E940B0B88E0F80170
:10201000ADE0B2E001900D928A95E1F73DC088E015
:10202000F801ADE0B2E001900D928A95E1F736C07B
:10203000C8010E94490881110CCF80911202816071
:1020400080931202C8010E940B0B28C07E2DFD8ACE
:10205000EC8AA201662D8D890E943F0B88E0F50174
:1020600011928A95E9F718C0662009F415CFC801C6
:102070000E944908782E882309F40ECF88E0F801E1
:10208000ADE0B2E001900D928A95E1F78DE092E02B
:102090000E944B070E944B0D0E94190D872D6596DB
:1020A0000FB6F894DEBF0FBECDBFDF91CF911F9169
:1020B0000F91FF90EF90DF90CF90BF90AF909F90E7
:1020C0008F907F906F905F904F900895CF93DF93A4
:1020D000CDB7DEB760970FB6F894DEBF0FBECDBFA9
:1020E00029873A874B875C876D877E878F87988B98
:1020F000CE0109960E94BF0D8823E1F099858A855B
:102100002C853D85232B31F08F3F31F481E09F3FBB
:1021100019F403C081E001C080E080FD6FC0298513
:102120003A854B855C856D857E858F8598890E9473
:102130004E0B64C088E0FE013996DE0111960190D5
:102140000D928A95E1F779856A854C855D85411503
:10215000510531F06F3F31F481E07F3F19F403C046
:1021600081E001C080E080FD49C0A091CC01B0E0D9
:10217000CD010196877099272091CB0130E082171D
:10218000930709F442C079836A835D834C8393E0AB
:10219000AA0FBB1F9A95E1F7A353BE4F98E0FE012B
:1021A000319601900D929A95E1F78093CC010E94AF
:1021B000F80C24C028E0829FC001112483539E4F55
:1021C0000E94BF0D882371F1E091CB0188E0E89F68
:1021D000F0011124E353FE4F20813181428153816C
:1021E00064817581868197810E944E0B8091CB011D
:1021F00090E00196877099278093CB018091CB0165
:102200009091CC018913D6CF0DC00E942108109265
:10221000CC011092CB01EDE0F2E088E0DF011D92ED
:102220008A95E9F760960FB6F894DEBF0FBECDBF72
:10223000DF91CF91089580911A02089580915D04F5
:1022400090915E04892B89F00E94AB2C209118029A
:1022500030911902AC01421B530B81E020915D04C7
:1022600030915E044217530708F480E081700895AE
:10227000809117028595859585950895809117021F
:10228000877008950E94AB2C2091150230911602A0
:10229000821B930B20915D0430915E04821793079B
:1022A00040F08091170282FB882780F991E089270E
:1022B00001C080E08170089590911702977081E0CD
:1022C00009F480E0089580912602089590912602F5
:1022D000892B809326020895809590912602892368
:1022E0008093260208951092260208958091250277
:1022F000089590912502892B809325020895809559
:102300009091250289238093250208951092250239
:10231000089590912402892B80932402089580953A
:10232000909124028923809324020895109224021C
:10233000089580911B02089508950C949C110C94AB
:102340009D11CF939091F40392FD11C090911B02C7
:10235000981769F0C82F0E94AB2C909319028093B4
:102360001802C0931B028C2FCF910C949F11CF9118
:10237000089580911B02882349F010921B0210924D
:1023800019021092180280E00C949F110895E091B8
:102390000001F0910101809126028083E09100010B
:1023A000F0910101908180912502892B8083E09139
:1023B0000001F0910101908180912402892B80839A
:1023C00080911B028823E9F080915D0490915E0466
:1023D000892B29F00E941E1181110E94B911E091F0
:1023E0000001F0910101908180911B02892B808373
:1023F00080910001909101010E94CA2B81110E94DD
:10240000B91180910001909101010C94932B0C94CF
:102410009C110C94071290911A02981721F0809346
:102420001A020C940912089580911A02882329F047
:1024300010921A0280E00C94091208950C949C11D9
:102440009091F40392FD16C098E0899F90011124A9
:10245000262B209317020E94910B0E94AB2C909385
:1024600016028093150280911702859585958595B2
:102470000C941E120C94910B1092170210921602DB
:102480001092150280E00C941E1220911702809584
:10249000822380931702982F977099F430E0482F89
:1024A000082E000C550B2417350759F09091F403B2
:1024B00092FD07C08595859585950E949C0B0C948F
:1024C0003C1208959091F40392FB222720F92817DB
:1024D00069F080FB92F99093F4038091F30390915B
:1024E000F4030E94B01282E00C944512089580918A
:1024F000F40382FB882780F991E089270C9462120B
:1025000081E00C94621280E00C9462126FEF7FEF16
:1025100080E090E00C94F23480E090E00E94CE34B1
:102520008A3E9E4F11F40C94D91780E0089582E002
:1025300090E00C94C63483E090E00C94C634CF93C2
:1025400084E090E00E94C634C82F82E290E00E94AE
:10255000C6342C2F30E0A901582BCA01CF91089521
:10256000CF93C92F682F84E090E00E94D4346C2F61
:1025700082E290E0CF910C94D434AB01BC018FE0A7
:1025800090E00C94E634AB01BC0183E190E00C9444
:10259000E63460E070E0CB010C94C31260E070E0C0
:1025A000CB010E94BD120C94C9126AEE7EEF80E04E
:1025B00090E00E94F23460E082E090E00E94D43427
:1025C00060E083E090E00E94D4341092CA0160E0A1
:1025D00084E090E00E94D43460E082E290E00E94C7
:1025E000D43460E085E090E00E94D43460E086E07E
:1025F00090E00E94D4346FEF87E090E00E94D434E2
:1026000040E050E0BA0188E090E00E94E63460E0EB
:102610008DE090E00E94D43440E050E0BA0188E1BF
:1026200090E00E94E63460E087E190E00E94D434BC
:1026300040E050E0BA018CE190E00E94E63460E0B6
:1026400070E080E290E00E94F23440E050E0BA0195
:1026500088E190E00E94E63480E00E94F2170E9438
:102660001E180C94CE120C94D512682F8EE090E0B8
:102670000C94D4340E94B72C6093360270933702C6
:102680008093380290933902609332027093330240
:102690008093340290933502089585B7806885BF92
:1026A00085B7806885BF089581E008950C94541320
:1026B00008950C9458130C9458130C945B130C94B9
:1026C00058130C945F130C9458130E944D1380E31D
:1026D00096E10E947D2B0E94B01B0E9428200E9440
:1026E00063130C9461130E9459130C9458130E94A5
:1026F000A22C0E942D180E9425170C945D136F9236
:102700007F928F929F92AF92BF92CF92DF92EF9281
:10271000FF920F931F93CF93DF93CDB7DEB72A9726
:102720000FB6F894DEBF0FBECDBF0E943A178111DD
:102730000E943A1338E2832E32E0932E00E010E03C
:10274000C02E802F0E9464165C01F401619071908C
:102750004F016826792661147104B1F40F5F1F4F91
:102760000530110569F78FEF89838A831B820E94E8
:10277000AB2C8160782F9D838C8349815A816B813A
:102780008D810E94CA063AC080913A0281FD0E9462
:102790006D16D12CEE24E394F12CC3018E219F21E0
:1027A000892B29F10E9456138823A9F0DE82CF825B
:1027B000AE20BF2081E0AB2809F480E088870E942A
:1027C000AB2C8160782F9A8789874E815F816885DD
:1027D0008A850E94CA06000F111FF801E85DFD4FAF
:1027E00080819181E826F926F182E08207C0D394A6
:1027F000EE0CFF1CFFE0DF12D0CFB0CF0E94872B82
:10280000909127028917D1F00E94872B809327028D
:102810002A960FB6F894DEBF0FBECDBFDF91CF91E1
:102820001F910F91FF90EF90DF90CF90BF90AF90EE
:102830009F908F907F906F900C94B6062A960FB65B
:10284000F894DEBF0FBECDBFDF91CF911F910F91E6
:10285000FF90EF90DF90CF90BF90AF909F908F90C0
:102860007F906F90089580E090E008950895880F1C
:10287000991FFC01E05EFB4F859194910895CF93E1
:10288000DF930E945915EC01811520E5920708F0AD
:1028900041C0811540E4940708F0CBC0803E91050B
:1028A00020F5803C910508F0B8C0883A910570F495
:1028B000853A910508F0A8C08130910509F4A1C0BE
:1028C00008F4EBC0049708F0EBC0E7C08F3B91051C
:1028D00008F0E3C0885AC82FD0E0CC0FDD1FCE5AD5
:1028E000DE4F888199819464DCC0811550E29507A0
:1028F00050F4C11581E0D80708F0D2C0C83ED10518
:1029000008F4CEC0CAC0811520E3920708F08AC03F
:102910009F7085C0811545E5940708F046C0811574
:1029200054E5950708F09DC0C11582E5D80718F554
:10293000C11521E5D20708F07FC0CE01F4E09695DD
:102940008795FA95E1F7282F23703C2F337081E0AB
:1029500090E002C0880F991F3A95E2F79C68922B8D
:102960002C2F2F702695269540E2249F900111244C
:10297000822B932B96C09E01237033279C2F969514
:102980009695C115D34508F05CC041E050E002C007
:10299000440F551F2A95E2F780E2989F9001112479
:1029A000CA01822B932B9C687CC0811559E5950741
:1029B00098F4C11588E5D80708F058C0C11526E578
:1029C000D20708F06AC08C2F0E94ED158F7190E03D
:1029D000982F8827906265C081154AE5940708F40E
:1029E0004AC090568115904208F057C08D2F8F71C4
:1029F0000E94ED159E01332730628F71A901582B7B
:102A00004AC081E090E04DC0855AC82FD0E0C05840
:102A1000DE4F888190E0906444C0805C91090E9400
:102A200037143FC09927D3FF02C0986C3AC0906C0E
:102A300038C09F70906A35C09C2F8827816F906A3C
:102A400030C041E050E002C0440F551F2A95E2F724
:102A500080E2989F90011124CA01822B932B9A68DF
:102A600020C0982F8827846F906A1BC09C2F8827CE
:102A7000806F906A16C08F700E94ED159E0194E0E1
:102A8000369527959A95E1F72F7030E0322F22275F
:102A90003069A901482BCA0104C080E090E001C060
:102AA000CE01DF91CF9108950E94F51E0E943F1440
:102AB00008958238910569F1B0F48133910509F4E4
:102AC0006DC048F48932910509F463C08A329105DA
:102AD00009F469C008958533910509F455C0893317
:102AE0009105B9F00895833E910569F138F4803E6F
:102AF0009105B1F0823E910509F10895863E910558
:102B0000A9F1873E9105B9F1843E910509F064C0B1
:102B100023C02091F30320FD4FC021FD4DC0089537
:102B20008091F30380FD44C08091F40380FF44C092
:102B30008091F30384FD42C083EE4DC08091F30386
:102B400082FF38C0F5CF8091F30382FD33C08091BE
:102B5000F40380FD31C0ECCF8091F40381FF32C0DB
:102B60008091F30384FD2AC087EE35C08091F30382
:102B700083FF26C0F5CF8091F30383FD21C08091B0
:102B8000F40381FD1FC0ECCF8091F30385FD1CC0D1
:102B90001DC08091F30385FD19C016C08091F30319
:102BA00086FD16C017C08091F30386FD13C010C0C8
:102BB00089E311C082EE0FC080EE0DC080E00BC033
:102BC00086EE09C084EE07C089E205C085E303C034
:102BD0008AE201C081E390E008959091F30392FFAF
:102BE0000DC0282F2871283019F4877F846006C013
:102BF000282F2471243011F48B7F886093FF0DC03F
:102C0000282F2871283119F4877E846106C0282F67
:102C10002471243111F48B7E88612091F40320FF0C
:102C20000DC0382F3871383019F4877F816006C0A5
:102C3000382F3171313011F48E7F886021FF0DC043
:102C4000282F2871283119F4877E816106C0282F2A
:102C50002171213111F48E7E886194FD877E089563
:102C600080E008950C9486120E943A178FE39CE945
:102C70000197F1F700C000000E943A1780E00E941F
:102C8000641680FF04C00E9432160C94F82C08953C
:102C90000C9434160E948C12811102C00E943313CE
:102CA0000E94971280933A020E949F129093F4031D
:102CB0008093F3030E9448160E949B120E946D0BA2
:102CC0008091C9010C947E0BE82FF0E0EE0FFF1FFE
:102CD000E150FC4F808191810895089580EA8A95A2
:102CE000F1F7089500C008950C946E1608950C94A1
:102CF00076160C9477160C9476160C947B16F89432
:102D0000E82FE295EF70F0E031A1282F2F7081E0DD
:102D100090E001C0880F2A95EAF7982F90959323A9
:102D200091A392A1892B82A3789408950F931F9366
:102D3000CF93DF93C2E9D1E089918F3F11F00E94D8
:102D40007F1681E0C739D807B9F7C3E8D1E002E9B7
:102D500011E089918F3F11F00E947F160C171D071B
:102D6000C1F7DF91CF911F910F910895BF92CF923C
:102D7000DF92EF92FF920F931F93CF93DF938C011B
:102D8000C62FD0E0CE018E569E4F6C01FC01908183
:102D90009F3F09F450C0B62EF894E92FE295EF70EA
:102DA000F0E081A19F7021E030E001C0220F9A95F0
:102DB000EAF7822B81A382A12095282322A378946D
:102DC0000E947216E3E8F1E042E951E021E030E0D0
:102DD000E12CF12C61916F3F89F0A62FA295AF7085
:102DE000B0E090968C9190E06F7002C095958795B9
:102DF0006A95E2F780FD02C0C90102C080E090E060
:102E0000E82AF92A220F331F4E175F0719F7F60138
:102E100080818F3F11F00E947F1661E0E114F10480
:102E200009F460E08B2D0E947416CC0FDD1FC00FDB
:102E3000D11FF982E882DF91CF911F910F91FF900E
:102E4000EF90DF90CF90BF9008950E9496168AE091
:102E5000EFEFF3E0DF01982F1D929A95E9F7E5EF88
:102E6000F3E0DF011D928A95E9F785E00E9485175E
:102E70000C943805FF920F931F93CF93DF93CDB738
:102E8000DEB72A970FB6F894DEBF0FBECDBF8E0116
:102E90000F5F1F4F8AE0F80111928A95E9F7F12C34
:102EA0006F2DC8010E94B616F394F5E0FF12F8CF1B
:102EB0004AE050E0B80185EF93E00E949934FF2486
:102EC000F394009709F4F12C892B41F08AE0F80182
:102ED000A5EFB3E001900D928A95E1F72F2D45E023
:102EE0006FEF73E085EF93E00E9486170E943E0526
:102EF0008F2D2A960FB6F894DEBF0FBECDBFDF919F
:102F0000CF911F910F91FF9008950895FF920F9315
:102F10001F93CF93DF93F82E092F162FD72FC42F8F
:102F2000222349F081E080933D020E94AB2C9093D4
:102F30003C0280933B0280913D028823D9F080912E
:102F40003B0290913C020E94C32C059798F0EF2D14
:102F5000F02FA12FBD2F80E090E04C2F50E0841780
:102F6000950734F4219131912D933D930196F7CF3C
:102F700010923D02DF91CF911F910F91FF90089524
:102F80000E94C32E0E9477130C94CF2E0E94D32E42
:102F90000E947F130C94ED2E0E94312C0E94AA2EC9
:102FA0000E9465130E94C0170E94C6170E947313E7
:102FB000FBCF83E290E00E94C6348B3481F484E23C
:102FC00090E00E94C634853051F485E290E00E9482
:102FD000C63491E0843509F090E0892F01C080E08B
:102FE00081700895CF93C82F811102C06FEF01C087
:102FF0006BE483E290E00E94D434C11102C06FEF11
:1030000001C065E084E290E00E94D434C11102C0A6
:103010006FEF01C064E585E290E0CF910C94D43469
:10302000089586E290E00E94C634682F70E080E048
:1030300090E0089586E290E00C94D43480E00E9401
:10304000F21760E070E0CB010E941A180E94161E71
:103050000E945C1F81E00C94F2170E9410180E94DD
:10306000D917811102C00C941E180895CF93FB014B
:10307000C281CC23E9F09C0122513F45203131052A
:1030800020F482510E946C1F0CC08031FFE59F0725
:1030900051F481E00E94910B43E062E081E00E94E4
:1030A0002F05C0E018C081319F45A9F482E0F2CF1E
:1030B0008031EFE59E0711F481E004C081319F4526
:1030C00049F482E00E949C0B43E062E081E00E94B0
:1030D0002F0501C0C1E08C2FCF9108952FEFFC0187
:1030E00020830895EF92FF920F931F93CF93DF9366
:1030F000EC01162F20913A0330913B038881232B5A
:1031000061F08E3F09F0F3C08981833008F4E6C096
:103110008550833008F0EBC0E1C0893009F487C0E6
:10312000D0F4843009F46DC050F48230A9F108F075
:103130005BC0813009F0D7C0198289E07EC086303B
:1031400009F472C008F465C0873009F470C0883093
:1031500009F46DC0C8C0803109F499C088F48D307D
:1031600009F468C030F48C3009F0BDC00E94111F12
:1031700093C08E3009F463C08F3009F471C0B3C0BE
:10318000823109F48BC008F485C0833109F496C0FC
:103190008E3F09F4A3C0A7C08981823041F08330FB
:1031A00069F0813009F09FC00E94B72C02C00E94D4
:1031B00011189A838B837C836D8399C0809102015F
:1031C00090910301892B09F492C07E0100E0802FC9
:1031D0000E946416F701928383830F5FF2E0EF0E83
:1031E000F11C0530A1F783C08981823009F07BC0D2
:1031F0006A817B818C819D810E9489340E941A188A
:1032000076C04B816A8189810E94671D9C838D8372
:103210006EC02C813D813227232732274B816A8162
:1032200089810E94881D63C00E94161E60C08FEFB6
:1032300088835DC00E94131F99838A8358C0898147
:103240009A819827892798276B8170E06D317105E5
:1032500008F04DC0AE014C5F5F4F0E94161F47C083
:103260008091020190910301892B09F440C089816A
:103270009A819827892798276B8170E06D317105B5
:10328000B0F5AE014C5F5F4F0E943A1F30C00E9404
:103290005C1F2DC00E94541D898329C089819A8199
:1032A0009827892798276B8170E06D317105F8F4B4
:1032B000AE014C5F5F4F0E94A31E19C089819A81A5
:1032C0009827892798276B8170E06D31710578F414
:1032D000AE014C5F5F4F0E94C71E09C0612FCE0137
:1032E0000E94B41B04C0612FCE010E946E18612F92
:1032F000CE01DF91CF911F910F91FF90EF900C9431
:103300007F2D8F929F92AF92BF92CF92DF92EF92DA
:10331000FF920F931F93CF93DF93CDB7DEB72A971A
:103320000FB6F894DEBF0FBECDBF06E712E0E12C6A
:10333000F12C85E8C82E8BE1D82E95E0A92E9BE1D3
:10334000B92E27E0822E2AE1922EF801D182C08286
:10335000B382A28295828482F58AE48ABE016F5F7D
:103360007F4F8E2D0E94C21D892B29F489859A8555
:10337000F801938B828BFFEFEF1AFF0A0A5E1F4F53
:1033800088E0E816F10409F72A960FB6F894DEBF34
:103390000FBECDBFDF91CF911F910F91FF90EF90A6
:1033A000DF90CF90BF90AF909F908F900895CF9374
:1033B000DF9300D000D01F92CDB7DEB790935A04B0
:1033C00080935904811520E2920748F40F900F90E2
:1033D0000F900F900F90DF91CF910C9497048EEF88
:1033E00089838A831B820E94AB2C8160782F9D8306
:1033F0008C8349815A816B818D810E94CA060F900E
:103400000F900F900F900F90DF91CF9108950F9331
:103410001F93CF93DF938C01EB0166E273E08C2F57
:103420000E94C21D892B09F04EC0809179049091B1
:103430007A04009741F0EFE9FFE03197F1F700C01F
:1034400000000197F6CFDD27C05DDC4F8881F801D1
:1034500010821882833079F048F4813041F1823053
:1034600091F5809128039091290309C0843051F08F
:103470008530E9F028C080912A0390912B030097B2
:10348000B1F01BC080912C0390912D030097A9F4FB
:1034900020912603309127038091280390912903DE
:1034A0002115310541F0009741F4C90106C0809112
:1034B000260390912703009731F0DF91CF911F9160
:1034C0000F910C94D719DF91CF911F910F9108950F
:1034D000CF93DF9300D000D01F92CDB7DEB790938B
:1034E0005A0480935904811520E2920748F40F9002
:1034F0000F900F900F900F90DF91CF910C947E045E
:103500008EEF89838A8381E08B830E94AB2C81605C
:10351000782F9D838C8349815A816B818D810E9494
:10352000CA060F900F900F900F900F90DF91CF91E0
:103530000895CF92DF92EF92FF921F93CF93DF9384
:10354000CDB7DEB72A970FB6F894DEBF0FBECDBF5A
:1035500080E5E9E0F4E0DF011D928A95E9F788E370
:10356000EEE3F2E0DF011D928A95E9F789E0C82ECB
:1035700084E0D82E7F0110E0F701D182C082BE0125
:103580006F5F7F4F812F0E94EC1D892B79F488E0BB
:10359000FE013196D60101900D928A95E1F7898559
:1035A0009A85D70113969C938E931297BAE0CB0E0F
:1035B000D11CE7E0EE0EF11C1F5F1830E9F62A96E9
:1035C0000FB6F894DEBF0FBECDBFDF91CF911F9134
:1035D000FF90EF90DF90CF900895CF93DF93EC01B1
:1035E0000E94681A8091790490917A04009741F0C2
:1035F000EFE9FFE03197F1F700C000000197F6CF47
:10360000CE01DF91CF910C94D7190F931F93CF93D5
:10361000DF938C01EB0166E273E08C2F0E94C21DE8
:10362000892B09F06DC0DD27F8018081813041F4DC
:103630009185911115C09285992391F082E010C077
:10364000823049F4F8018185811107C0828581119A
:1036500006C083E005C086E003C085E001C084E0C9
:10366000C05DDC4F88838330B1F028F4813071F085
:10367000823031F045C08430A9F0853079F140C006
:1036800080912803909129030097A1F5809126034A
:103690009091270320C080912A0390912B030097DB
:1036A000E9F028C080912C0390912D03009711F52B
:1036B0008091260390912703009749F00E94ED1A0C
:1036C0008091280390912903009781F013C0809185
:1036D000280390912903009799F00CC0809126034C
:1036E00090912703009761F00E94ED1A80912603C4
:1036F00090912703DF91CF911F910F910C94681A3D
:10370000DF91CF911F910F9108950F931F93CF9346
:10371000DF938C01862F66E273E00E94C21D892B25
:10372000D1F4C0912603D09127032097A1F0F8018E
:103730008081833039F4CE010E94ED1ACE010E94BF
:10374000ED1A02C0843038F0CE01DF91CF911F9185
:103750000F910C94ED1ADF91CF911F910F91089565
:103760000E9481190C94991ACF92DF92FF920F93C5
:103770001F93CF93DF93CDB7DEB72A970FB6F89498
:10378000DEBF0FBECDBF603209F030C1DC01119643
:10379000EC9111974E2F50E04E30510508F026C1A4
:1037A0008C01FA01EC58FF4F0C94833488E0E9E176
:1037B000F1E0DE01119601900D928A95E1F780E229
:1037C000F80111928A95E9F784E0D8018C9311965B
:1037D0001C92119712961C92129713961C92139793
:1037E00088E0FE013196149601900D928A95E1F7DA
:1037F000FDC080E6FD01808382E081831282138216
:10380000F5C0DC0113968C91139790E0982F8827D0
:1038100012962C91820F911D092E000CAA0BBB0B46
:1038200045E0880F991FAA1FBB1F4A95D1F7AC012D
:10383000BD01405E5F4F6F4F7F4F481759076A07C2
:103840007B0708F4D3C08036E2E09E07A105B105EE
:1038500008F0CCC04136F2E05F076105710520F049
:1038600040E652E060E070E0481B590BBC01605E2E
:103870007B4FC8010E949034B9C040E250E06FEF26
:1038800070E00E94AF3480910201D8018C93809146
:103890003A0311968C93AAC081E090E090933B0389
:1038A00080933A0382E390E0909339038093380346
:1038B0000E94AB2C9BC080910201FD01808380910E
:1038C0003A03818380913803828390C040E250E0C4
:1038D000BC01DC0112968D919C9113970E9471207E
:1038E00085C0BC016F5F7F4F4FE150E0FC018281DA
:1038F00093810E94A2200AC0BC016C5F7F4F4CE103
:1039000050E0FC01828193810E94C820D8018C93F1
:103910006DC00E944E206AC0FC0182818230D1F1CC
:10392000A8F4882371F1813009F060C013968C915E
:103930002AE0F22EFE0131966F01DF01EF2D1D927C
:10394000EA95E9F7B6010E94C21D49C08330C1F172
:10395000843009F04BC013968C9113979AE0FD01C7
:103960003496DE01119601900D929A95E1F7BE0111
:103970006F5F7F4F0E94011EF80180830E94991A99
:1039800035C080E21D928A95E9F788E0F8018083CE
:1039900081832CC013968C9113979AE0FD01349685
:1039A000DE01119601900D929A95E1F7BE016F5FCD
:1039B0007F4F0E94D71DF80180830E94811916C095
:1039C00013968C919AE0F92EFE0131966F01DF017A
:1039D000EF2D1D92EA95E9F7B6010E94EC1DD80182
:1039E0008D93F60101900D92FA94E1F72A960FB6A5
:1039F000F894DEBF0FBECDBFDF91CF911F910F9125
:103A0000FF90DF90CF900895CF93DF93FB01228149
:103A1000211146C0EC01D755CF3FD10511F008F078
:103A20003FC066E273E08C2F0E94C21D892BC1F556
:103A300086E18C9FF0018D9FF00D1124EA58FD4F17
:103A400086818130C9F48091260390912703892BC8
:103A500039F18091280390912903892B09F18091F4
:103A60002A0390912B03892BD9F480912C039091F8
:103A70002D03892B49F014C0823091F480912A03E0
:103A800090912B03892B61F026E12C9FC0012D9F83
:103A9000900D11248A589D4FFC01108A0E94212A02
:103AA00081E0DF91CF91089584E0089550E0440FC4
:103AB000551F2EE1629F400D511D11249A0166E9A8
:103AC000869F200D311D1124C901879608950F93FB
:103AD0001F93CF93DF938430A0F4653090F44F3080
:103AE00080F40E94561D8C010E94C63490E0D82FAD
:103AF000CC27C80101960E94C6349E01282BC9011B
:103B000002C080E090E0DF91CF911F910F91089566
:103B10000F931F93CF93DF938430F0F46530E0F47C
:103B20004F30D0F421159CE5390731F4E0910201C2
:103B3000F0910301EF2B81F0E9010E94561D8C01E9
:103B40006D2F0E94D4346C2FC8010196DF91CF9164
:103B50001F910F910C94D434DF91CF911F910F914D
:103B600008958232910520F481589D4F0C94C634FB
:103B700080E008958232910520F481589D4F0C9485
:103B8000D4340895883080F49B01982F8AE0989F60
:103B9000B00111246F557D4F4AE050E0C9010E94E9
:103BA000B63480E090E008958FEF9FEF089588305D
:103BB00080F49B01982F8AE0989FB00111246F55E3
:103BC0007D4F4AE050E0C9010E94F83480E090E067
:103BD00008958FEF9FEF0895883080F49B01982F10
:103BE0008AE0989FB00111246F507D4F4AE050E069
:103BF000C9010E94B63480E090E008958FEF9FEFF6
:103C00000895883080F49B01982F8AE0989FB00136
:103C100011246F507D4F4AE050E0C9010E94F834F2
:103C200080E090E008958FEF9FEF08956F927F926C
:103C30008F929F92AF92BF92CF92DF92EF92FF92BC
:103C40000F931F93CF93DF93CDB7DEB764970FB673
:103C5000F894DEBF0FBECDBFA0900201B09003016B
:103C600081E090E09093030180930201612CC12CCC
:103C7000D12C712CE12CF12C00E010E047018C0CD0
:103C80009D1CF801EE0FFF1FE80DF91DE85EFE4FC9
:103C900025913491402F672D862D0E94881D0F5F3E
:103CA0001F4F0F30110569F78EE1E80EF11C739478
:103CB00095E07912E1CFE6E9CE0ED11C6394F4E0F1
:103CC0006F12D7CF0E944E201C861B861E861D8633
:103CD000188A1F861A8A198A88EC90E09C8B8B8B35
:103CE00010E0BE01655F7F4F812F0E94D71D1F5FCF
:103CF0001830B9F7CE0101967C018AE0F7011192E4
:103D00008A95E9F710E0B701812F0E94011E1F5F1D
:103D10001830C9F7B0920301A092020164960FB661
:103D2000F894DEBF0FBECDBFDF91CF911F910F91F1
:103D3000FF90EF90DF90CF90BF90AF909F908F90CB
:103D40007F906F900895EF92FF920F931F93CF9300
:103D5000DF93EA017A01E60EF71E8C01C80187960F
:103D6000CE15DF0569F0083522E0120720F40E9425
:103D7000C634888301C0188221960F5F1F4FEECF93
:103D8000DF91CF911F910F91FF90EF900895EF92E7
:103D9000FF920F931F93CF93DF938A01883522E020
:103DA0009207E0F428E532E0281B390B2617370785
:103DB000A8F07A01E60EF71EEC01CE0187960E15EB
:103DC0001F0561F0C835E2E0DE0720F4F8016081EC
:103DD0000E94D4340F5F1F4F2196EFCFDF91CF9118
:103DE0001F910F91FF90EF900895462F20913A0375
:103DF00030913B03232B91F47E3F39F46E3F71F4F5
:103E00008091590490915A040895843038F47530A3
:103E100028F46F3018F4672F0C94671D80E090E051
:103E2000089580E108958FEB90E00895EF92FF925E
:103E30000F931F93CF93DF93EA017A01E60EF71EEB
:103E40008C01C8018F5B9C4FCE15DF0561F00F3BE5
:103E5000110520F40E94C634888301C0188221967F
:103E60000F5F1F4FEECFDF91CF911F910F91FF900A
:103E7000EF900895EF92FF920F931F93CF93DF93EC
:103E8000EA017A01E60EF71E8C01C8018F5B9C4F98
:103E9000CE15DF0551F00F3B110518F468810E9423
:103EA000D43421960F5F1F4FF0CFDF91CF911F9138
:103EB0000F91FF90EF900895CF93DF93C1E4D3E08B
:103EC00060E0CE010E94D4342196C11584E0D80769
:103ED000B9F7DF91CF910895AF92BF92CF92DF9261
:103EE000EF92FF920F931F93CF93DF9300D000D0F8
:103EF000CDB7DEB7F82E2FE0281708F478C08FEF83
:103F000093E00E94C634811172C001E413E0FF20E7
:103F100071F0011584E0180709F469C0C8010E9416
:103F2000C634811101C0FA940F5F1F4FF0CF198280
:103F30001A821B821C82CC24CA947801EFEFEE1AFD
:103F4000FE0AC8010E94C63489831A82882309F4B4
:103F50004EC0813009F046C05801F2E0AF0EB11CEE
:103F6000C7010E94C6348A83882309F440C09FEFAA
:103F7000980F933060F4780123E0E20EF11CC50144
:103F80000E94C6348B8381112DC08701D6CF843027
:103F900011F07501FACFC5010E94C634D82E780100
:103FA00084E0E80EF11CC80103960E94C634DD20AF
:103FB000F1F08823E1F0282F30E021503109C29E32
:103FC000A001C39E500D11248D2D90E00197840F08
:103FD000951F0197D0F2EFE9FFE03197F1F700C0AC
:103FE0000000F7CFCE0101960E94AB06CECF0F9016
:103FF0000F900F900F90DF91CF911F910F91FF9035
:10400000EF90DF90CF90BF90AF90089580915B04C8
:1040100090915C040C94E8230F931F93CF93DF934C
:104020000BE514E0C0E0D0E0CE010E94B11DF80124
:1040300061918F01861719F0CE010E94BA1D219659
:10404000C232D10589F7DF91CF911F910F91089569
:104050000F931F93CF93DF930BE514E0C0E0D0E004
:10406000CE010E94B11DF80181938F012196C232C9
:10407000D105B1F7C0E0D0E0FE01EA57F94F8591D4
:104080009491009711F0FC0109952896C035D1054F
:1040900099F7DF91CF911F910F910895EBE5F4E02F
:1040A000128E138E8FEA90E09183808385E0848F57
:1040B00088E893E19383828382E390E0978B868BF9
:1040C00088EC90E0918F808F158E8AE090E0978F3A
:1040D000868F80E590E091A380A30E940C200C9431
:1040E0002820EF92FF920F931F93CF93DF937C01D1
:1040F000EB018A016FEF70E0CE010E94AF3420E83F
:1041000036E080E090E0AC014E5F5F4F041715078A
:1041100090F0F90165917491E616F70630F4FE010E
:10412000E80FF91F71836083CA01285F3F4F46E0A3
:10413000203D340741F7DF91CF911F910F91FF9000
:10414000EF90089520E836E0F901A591B4918A171F
:104150009B0749F0285F3F4FE6E0203D3E07A1F76F
:104160008FEF9FEF0895D9011296FD0185919491EB
:1041700048175907A8F3CB01FD0145915491F90166
:104180003496659174910E94A63480E090E0089581
:10419000CF93DF93C0E8D6E0FE01259134918217DA
:1041A000930731F0289626E0C03DD207A9F708C052
:1041B000CE010296FC01259134914217530718F461
:1041C0008FEF9FEF15C0FC0145915491FE0134968D
:1041D000859194910E94A6340E940C20FE0136968F
:1041E00085919491009711F0FC01099580E090E091
:1041F000DF91CF9108958091730490917404089594
:1042000080917804817008958091780486958170FA
:1042100008958091780482FB882780F90895809121
:10422000780483FB882780F9089580917104909128
:10423000720408958832910550F48E319105A0F4EE
:10424000049700F1809176048295817012C08933C1
:10425000910530F48D32910578F48B9769F012C096
:104260008436910549F00EC08091760483FB88273F
:1042700080F991E0892708958091760482FB882750
:1042800080F9F7CF80E008958091760485FB882738
:1042900080F908958091760486FB882780F9089537
:1042A000CF93DF93EC01FB018281882309F426C1BF
:1042B000C330FDE5DF0760F4CA3F9CE5D90768F429
:1042C0009E0122503C452431310508F018C105C03B
:1042D000C136EDE5DE0709F012C10E949F129093EE
:1042E000F4038093F303C031FCE5DF0709F4CAC08F
:1042F00008F041C0C8309CE5D90709F4A4C0F0F427
:10430000C430FCE5DF0709F48CC068F4C2309CE5DA
:10431000D90709F482C0C330DC4509F0E5C08091BB
:10432000F3038260DFC0C630FCE5DF0709F483C019
:1043300008F085C08091F3038860D4C0CC309CE540
:10434000D90709F490C068F4CA30FCE5DF0709F426
:104350007EC008F084C00E9421088091F303806829
:10436000C1C0CE309CE5D90709F481C008F086C0F1
:104370008091F30394C0CC3FFCE5DF0709F47BC0D8
:1043800038F5C4319CE5D90709F49AC058F4C23114
:10439000FCE5DF0709F47AC008F07EC08091F303E2
:1043A0008F7BA0C0CA3F9CE5D907F1F108F03FC060
:1043B000C531DC4509F098C08091F30382FB2227C8
:1043C00020F991E0922790FB82F990FB83F98AC053
:1043D000C1158DE5D80709F467C050F48091F40346
:1043E000CE3FECE5DE07C1F108F05BC08D7F65C014
:1043F000C2308DE5D80709F471C008F46DC0C1362C
:10440000DD4509F071C08091F30384FB222720F978
:1044100091E0922790FB84F965C08091F30381605D
:1044200061C08091F30316C08091F40316C080919F
:10443000F403826042C08091F303806153C0809195
:10444000F30380624FC08091F30380644BC080917E
:10445000F3038860846046C0826081602EC08091D2
:10446000F3038E7F3FC08091F3038D7F3BC080912B
:10447000F303877F37C08091F40314C08091F30366
:104480008F7E30C08091F3038F7D2CC00E94210865
:104490008091F3038F7726C08091F303877F8B7F12
:1044A00021C08D7F8E7F09C08091F403982F909555
:1044B00091708E7F892B90FB81F98093F40314C057
:1044C0000E9421088091F30387FB222720F991E0C5
:1044D000922790FB87F906C081E001C080E00E942E
:1044E000351302C08093F3038091F3039091F4039A
:1044F0000E94B0120E94210880E001C081E0DF919B
:10450000CF91089580910401877F8093040182E018
:104510000E947F118091040184FF06C08F7E8093EA
:10452000040182E00E9466118091040185FF06C0AB
:104530008F7D8093040180E20E9466110C94C71164
:10454000CF93DF93EC01662319F082E00E9479118A
:10455000CE019056811520E2920720F0905E8115E1
:10456000904118F4CE01992701C0CE01DF91CF917F
:104570000C947E049C013056211540E2340720F053
:10458000305E2115304108F499270C949704FC0102
:10459000FF2724E0F695E7952A95E1F79C012F7017
:1045A0003327EE0FFF1FE45CFC4F81E090E002C078
:1045B000880F991F2A95E2F7662329F0208131811F
:1045C000822B932B06C08095909520813181822388
:1045D0009323918380830895FC0123E0F695E7956A
:1045E0002A95E1F7EE71FF27E45CFC4F8F70992765
:1045F00021E030E002C0220F331F8A95E2F780816C
:1046000091812823392381E0232B09F480E0089548
:10461000DF92EF92FF920F931F93CF93DF93EC0102
:104620007B01D42E89018091040182FF80C02091FA
:104630006403309165032C173D0719F0209709F0AA
:1046400076C0909104019B7F9093040191FD11C06D
:104650008091660390916703A701481B590B61E0A5
:1046600080910501909106014817590718F460E000
:1046700001C061E061708091040160FB81F9809369
:104680000401C9010E94C7220E94631181FF08C072
:104690008091040180618093040182E00E946C118A
:1046A0000E94631185FF08C080910401806280939D
:1046B000040180E20E946C116091040166956170B2
:1046C000A80180916403909165030E94A022D110FB
:1046D00005C08091790490917A0413C0B80180914B
:1046E0006403909165030E944421882391F3B801EB
:1046F00080916403909165030E944A218111E9CF62
:104700002BC0009741F0EFE9FFE03197F1F700C0CF
:1047100000000197F6CF6091040166956170A801D1
:1047200080916403909165030E94BA220FC0CE016C
:104730000E94EC22A801682FCE010E94BA2280912B
:10474000640390916503C817D90711F40E9482226F
:10475000F0926703E0926603DF91CF911F910F9172
:10476000FF90EF90DF9008958091760480FF1EC047
:104770008091040182FF1AC00E94AB2C2091660335
:1047800030916703AC01421B530B2091050130911E
:1047900006014217530750F02CE533E041E0BC011D
:1047A00080916403909165030C940823089580918F
:1047B0000401982F909590FB80F9809304010C944C
:1047C0008222809104018E7F809304010C948222C6
:1047D00090930601809305010895CF92DF92EF92A6
:1047E000FF920F931F93CF93DF932091760420FFC6
:1047F0003AC08B01EC010E94AB2C6C01F801828164
:104800008823A1F18091040182FF08C02CE533E0E8
:1048100040E0B60180E090E00E940823CB31FCE547
:10482000DF0759F0CC312CE5D20769F0CA318CE5AD
:10483000D80759F40E94D72308C0809104018160F1
:104840008093040102C00E94E123CE01905681159D
:10485000E0E29E0720F0905E81159041A8F510924D
:10486000650310926403FF24F394EDC0C13ED105AB
:1048700021F4809104018F7E06C0C53ED10531F43C
:10488000809104018F7D809304011EC0CE0190565B
:10489000811520E2920720F0905E81159041A0F4EE
:1048A0008091040182FBFF24F0F882FFDCCFB80185
:1048B000CE010E9404218111D6CF2CE533E040E0E7
:1048C000B60180E090E0B9C08091040180FFCBCFB9
:1048D000B801CE010E941A21F801F280882309F460
:1048E000AFC0FF2009F4A5C00E946311F82E0E94FA
:1048F00099118F298D7FB9F010926503109264038E
:104900008091760481FD0FC060E0CE010E94C72235
:10491000A80160E0CE010E94A0220E9499118D7F23
:104920000E94A11181C088E0F801ACE5B3E00190DC
:104930000D928A95E1F710925E0310926003109237
:104940005F038091640390916503C817D90709F04C
:104950004BC0B801CE010E944421882309F444C011
:104960008091040181FD12C08091660390916703DC
:104970007601E81AF90AB801809164039091650301
:104980000E94FB20E816F90678F50AC0B80180916C
:104990006403909165030E944A218111E5CF24C0F0
:1049A0000E94631181FF08C080910401806180939F
:1049B000040182E00E946C110E94631185FF08C00F
:1049C0008091040180628093040180E20E946C1156
:1049D0006091040166956170A801809164039091D3
:1049E00065030E94A02223C00E946311182F0E9419
:1049F0009911812B869581709091040180FB91F92A
:104A0000909304010E9499118D7F0E94A111D0936F
:104A10006503C0936403D0926703C09266038091DC
:104A2000040184608093040182E00E944512F12C0D
:104A30000AC0980140E0B601CE010E94082303C0DD
:104A4000F1100DCF10CF8F2DDF91CF911F910F91CE
:104A5000FF90EF90DF90CF90089508950F931F93EC
:104A6000CF93DF938091D303882309F457C0C0917B
:104A700068031CE08091D303C81708F04BC001E025
:104A80000C0F00936803D0E01C9FF0011D9FF00DF8
:104A90001124ED58FC4F9081818123813481232B97
:104AA00031F08F3F31F481E09F3F19F403C081E082
:104AB00001C080E080FD2CC01C9FD0011D9FB00D67
:104AC0001124AD58BC4F16968D919C911797892B48
:104AD00061F418968D919C9119978F3F2FEF920753
:104AE00021F061E00E942D250AC0208131814281A0
:104AF000538164817581868197810E9466101C9F15
:104B0000F0011D9FF00D1124ED58FC4F148213820B
:104B1000C02FB0CF1092D30310926803DF91CF91D2
:104B20001F910F9108951092D5031092D4032091F4
:104B3000080130910901EEE3F2E080E090E0821795
:104B4000930741F04581411102C0148216820196FB
:104B50003796F5CF0895BC0140917103809172039F
:104B6000942F981729F1292F30E0F901EE0FFF1F3C
:104B7000E759FC4F0190F081E02DE617F70799F413
:104B800087E0869FF001879FF00D1124E25CFD4FC6
:104B900081E0848394130CC02F5F3F4F2370332731
:104BA0002093710308952F5F3F4F922F9370D9CFB9
:104BB00008956F927F929F92AF92BF92CF92DF92B1
:104BC000EF92FF920F931F93CF93DF93DB01149625
:104BD0002C91149721116DC0A090D303E3E7F3E06B
:104BE00020E030E0B12C66246394712C2A1508F083
:104BF00051C0E284F384CD90DC9011976FEF7FEF8A
:104C0000912C492D50E08A01000F111F0C0D1D1D24
:104C1000E801088119810115110531F0E016F1064E
:104C200009F4BA019394EDCF6F3FDFEF7D0771F187
:104C3000E30102C0CC0FDD1F6A95E2F7BC2AB30185
:104C400002C0660F771F9A94E2F7AB0141505109F9
:104C50006B2D70E046175707B9F412964D915C9191
:104C600013976CE0629FF001639FF00D1124ED58E3
:104C7000FC4F578346832EEF2083218391878087C3
:104C800021E015962C9306C0148213822F5F3F4FAC
:104C90003C96ACCFDF91CF911F910F91FF90EF9099
:104CA000DF90CF90BF90AF909F907F906F900C94CB
:104CB000AB25DF91CF911F910F91FF90EF90DF9087
:104CC000CF90BF90AF909F907F906F9008951F936B
:104CD000CF93DF93C091710317E080917203C817DF
:104CE000A1F0D0E0FE01EE0FFF1FE759FC4F8081DD
:104CF0009181189FB001199F700D1124625C7D4F46
:104D00000E94D9252196C370E8CF0E942E25DF91FD
:104D1000CF911F910C9493251F93CF93DF93DC01C8
:104D2000DC9111961C91119780E090E020E0ED2F2E
:104D3000F12FE20FF11DE20FF11D4081518141156C
:104D40005105B9F0FB01C081318190E0EC2FF32FC8
:104D5000E90FF11DE90FF11D0190F081E02D309771
:104D600031F04E175F0709F481E09F5FEFCF2F5FAF
:104D7000DECF882321F0921728F0CD0104C080E017
:104D800090E001C0CB01DF91CF911F9108958091F8
:104D90000701882341F18091D6039091D7030097B2
:104DA00011F10E94C32C2091D4033091D503281710
:104DB0003907C8F49091710380917203981759F0E4
:104DC0000E9467261092D5031092D4031092D70345
:104DD0001092D60308950E942E251092D7031092A8
:104DE000D6030C94932508951092D7031092D603FE
:104DF0001092070180917203809371030E949325A2
:104E00000C942E258091070181110C94F42681E0E9
:104E10008093070108952F923F924F925F926F9275
:104E20007F928F929F92AF92BF92CF92DF92EF923A
:104E3000FF920F931F93CF93DF93CDB7DEB72C97DD
:104E40000FB6F894DEBF0FBECDBF4C016B01873F9C
:104E50002CE5920741F4FB0112811123B1F081E0AE
:104E6000809307019EC1883FFCE59F0739F4FB0151
:104E70001281112351F00E94F42693C1893F9C4571
:104E800021F4FB01128111110EC00EE312E0E12C9E
:104E9000F12C1B8644244394512C9E012F5F3F4FDD
:104EA0003A87298748C00E9402277BC1841695064D
:104EB00009F0C50123945C01822D90E0FC01EE0F06
:104EC000FF1FE20FF31F408151814115510571F71A
:104ED000FFEFAF16BF0609F41BC1F8016481611131
:104EE0003AC0809107018170F6013280332009F4C5
:104EF000ADC0882309F4AAC0B801C7010E941521DA
:104F00003C01F8018581882349F1920102C0220FFA
:104F1000331F2A94E2F721503109F801868190E08D
:104F20002817390779F1FB85F329FB872FEFE21A60
:104F3000F20A095F1F4F8091080190910901E8165C
:104F4000F90608F0E7C0F80120813181AA24AA946B
:104F5000BA2C212CB1CF80E090E0C5CFC20101C0B6
:104F6000880FAA94EAF79681892B86838091D403CF
:104F70009091D5038615970540F67092D5036092FF
:104F8000D403C3CF8091D6039091D703009749F003
:104F90000E94C32C6816790620F421E0F8012483CE
:104FA000C2CF20907103309172033C8780E090E083
:104FB000EC852E16A9F1A22CB12CF501EE0FFF1FE6
:104FC000E759FC4F2081318147E0429FC001439F58
:104FD000900D1124FC01E25CFD4F3F01B801CF01AF
:104FE0000E948C260097A9F021E0FC012483801701
:104FF000910709F498CF2091710322120AC0681614
:10500000790639F495012F5F3F4F237033272093A2
:10501000710395012F5F3F4F422F4370242EC8CF5D
:105020008017910709F47FCFA22CB12CF501EE0F68
:10503000FF1FE759FC4FF182E082FFEFAF1ABF0A72
:1050400023E0A222BB24A09272036DCFF8019581C8
:105050002681911114C0A20102C0440F551F2A9449
:10506000E2F74150510930E04217530709F043C0BD
:10507000662309F441C0C7010E94AB253CC0822FC2
:1050800090E09C0121503109282339230A2C02C0C9
:10509000959587950A94E2F7232B59F580FF29C04F
:1050A000F80182819381892BE1F0E985FA8528E076
:1050B00011922A95E9F73EEF39833A830E94AB2C8F
:1050C0008160582F9D838C83F801828193818F8327
:1050D000988729813A814B816D817E810E9466107B
:1050E00004C060E0C7010E942D25F801158281E00F
:1050F00003C0817001C080E0920101C0220FAA9418
:10510000EAF72095F801968129232683382E0BCFC4
:10511000312C09CFF6018281882379F1FB85FF23A9
:1051200061F10E94AB2C9093D7038093D6038091BA
:10513000D303883098F591E0980F9093D30398E0CB
:10514000F601DE01119601900D929A95E1F72CE09F
:10515000829FC00111248D589C4F28E0FE0131969A
:10516000DC0101900D922A95E1F72FEF3FEFFC0152
:10517000318720879386828611C090917103809138
:105180007203981719F00E94672608C00E942E2506
:105190001092D7031092D6030E94932511E0FB854D
:1051A0001F27812F2C960FB6F894DEBF0FBECDBF00
:1051B000DF91CF911F910F91FF90EF90DF90CF90F3
:1051C000BF90AF909F908F907F906F905F904F9027
:1051D0003F902F900895CF93DF9386319C4509F03F
:1051E00042C0EB010E946311982F9A7A20917504B6
:1051F00020FF04C0382F347409F090E021FF04C070
:10520000382F317109F090E022FF04C0382F387830
:1052100009F090E023FF03C0827209F090E08A81D8
:105220002091000130910101882379F081E09111F2
:1052300001C080E08093D803911102C069E201C0EF
:1052400065E3C9010E940C2C0AC08091D80381112A
:1052500002C069E201C065E3C9010E940E2C0E94F0
:10526000C71180E001C081E0DF91CF910895AF9236
:10527000BF92CF92DF92EF92FF920F931F93CF9343
:10528000DF937C015B01C42FD22FFC018281882334
:10529000F9F04093DB030E94AB2C9093DA038093E8
:1052A000D90380E28C0F883008F06EC0C77081E0AF
:1052B00001C0880FCA95EAF7DF91CF911F910F9136
:1052C000FF90EF90DF90CF90BF90AF900C94EF07DE
:1052D0008091DB03481335C08091D9039091DA03A4
:1052E0000E94C32C6C01B701C5010E94FB20C816A7
:1052F000D90638F510E21D0FCD17B9F080E28C0FFA
:10530000883040F4C77081E001C0880FCA95EAF781
:105310000E94F607183058F581E09D2F977001C064
:10532000880F9A95EAF70E94EF07802F0E94E20704
:10533000183050F5D77081E001C0880FDA95EAF790
:105340000AC080E28C0F8830F8F4C77081E001C099
:10535000880FCA95EAF7DF91CF911F910F91FF90C7
:10536000EF90DF90CF90BF90AF900C94F607802F16
:10537000DF91CF911F910F91FF90EF90DF90CF9031
:10538000BF90AF900C94E207DF91CF911F910F91E6
:10539000FF90EF90DF90CF90BF90AF9008950F9364
:1053A0009C01CB01233F4CE5340731F188F4283DC3
:1053B000FCE53F07D9F0293D4CE5340779F1273D5D
:1053C0003C45A9F506E221EE41EE67ED7CE52BC0F8
:1053D000253FFCE53F07E1F0A8F0263F3C4539F5C5
:1053E00007E225EE46EE66EF7CE51DC007E225EEFE
:1053F00045EE68ED7CE517C006E221EE40EE63EF76
:105400007CE511C007E225EE44EE64EF7CE50BC0BD
:1054100006E221EE42EE65EF7CE505C008E221E000
:1054200045EE69ED7CE50E94372980E008C0FC016B
:105430008281882319F01092DB0301C081E00F9173
:105440000895CF93DF93FC012189211116C0EC014F
:1054500081E0818B87810E94661188850E94791185
:105460000E94C711EA81FB81CE010696309729F090
:105470006C897D89DF91CF910994DF91CF91089557
:10548000EF92FF920F931F93CF93DF93FC0122853E
:10549000211136C0EC01E380F480F7E5FF1A26E124
:1054A0002E9DC0012F9D900D1124DC01AA58BD4FE7
:1054B0001496ED91FC91159784589D4F309729F0E3
:1054C00054966D917C915597099586E18E9D80014A
:1054D0008F9D100D11240A581D4FF80187810E94DD
:1054E0006C11F80180850E947F110E94C7111882FB
:1054F00019861B861E821D821092DD031092DC032A
:10550000DF91CF911F910F91FF90EF900895DF925F
:10551000EF92FF920F931F93CF93DF93FB012281B2
:105520002223A9F120910A0130910B012F3F3F4F17
:1055300071F18C01C6E7D2E0E12CF12CDD24D3948B
:1055400080910A0190910B018E159F0504F18E81C7
:105550008823C1F089859A858017910739F4809155
:10556000DC039091DD030817190761F0DF861C87C3
:105570000B87CE010E94212ACE0106960E94402A66
:105580000E9486114FEFE41AF40A6696D9CFDF9194
:10559000CF911F910F91FF90EF90DF900895EF92C0
:1055A000FF920F931F93CF93DF939C0137552F3FAB
:1055B000310511F008F048C040910A0150910B01EB
:1055C0004217530724F430930B0120930A01FB0187
:1055D0007C01828196E1929F8001939F100D11249E
:1055E000E801CA58DD4F888B92818E81992311F191
:1055F000FA86E9868F5F8E830E94AB2C9E878D870B
:105600000E9499118F830E94631188870E947611EE
:105610009885892B8887E881F981C80184589D4F36
:10562000309719F06C897D890995F092DD03E0923D
:10563000DC030AC0882341F08989882329F0C80146
:1056400084589D4F0E94402A81E0DF91CF911F91A5
:105650000F91FF90EF900895CF92DF92EF92FF921B
:105660000F931F93CF93DF9380910A0190910B01C9
:105670000196D1F110E006E1C12FD0E080910A013E
:1056800090910B018C179D077CF10C9FF0010D9FF1
:10569000F00D1124EA58FD4FE288F388E114F1047B
:1056A00039F460E070E0818592850E94FB207C01E6
:1056B0000C9F60010D9FD00C1124E601CA58DD4FEC
:1056C0008E81882379F08D859E850E94C32CE816F3
:1056D000F90640F4CE010E94212AC60184589D4F4C
:1056E0000E94402A1F5FC8CFDF91CF911F910F9179
:1056F000FF90EF90DF90CF9008959093A701809353
:10570000A60108959093E3038093E2030895E09146
:10571000E203F091E303309721F00190F081E02D56
:10572000099480E00895E091E203F091E30330975B
:1057300021F00280F381E02D099408952091E00387
:105740003091E1032817390771F09093E1038093BA
:10575000E003E091E203F091E303309721F006804B
:10576000F781E02D099408952091DE033091DF0345
:105770002817390771F09093DF038093DE03E091DF
:10578000E203F091E303309721F00084F185E02DEE
:1057900009940895FC01329697E080E0915029F039
:1057A00021912223D9F38F5FF9CF0895662349F021
:1057B000FC01329608962191621729F0E817F90743
:1057C000D1F780E0089581E008959C01FC013296B4
:1057D0009FEF80E04191461789F09F3F19F44111F6
:1057E00001C0982F8F5F8630A9F79F3F39F0F901EC
:1057F000E90FF11D97FDFA956283089508959C01C4
:105800002A5F3F4FFC014281461301C0128201967C
:1058100082179307B9F708950C94E52B0C94FF2B8E
:10582000029626E0FC0111922A95E9F70895089561
:105830000C94172C83E08093E4030C94182C8111B2
:1058400002C081E001C082E08093E4030C94182C34
:105850000C941F2C81E08093E4030C94182C0C947E
:105860002A2C089580918504843031F10E944605E8
:105870001092E50320E488E190E00FB6F894A89533
:10588000809360000FBE2093600083B7817F8460A7
:1058900083BF83B7816083BF7894889583B78E7FF9
:1058A00083BF0FB6F894A8958091600088618093BB
:1058B0006000109260000FBE089508950C945D2C56
:1058C000CF930E945E2C0E943A170E945D2CC0E08C
:1058D0008C2F0E946416892B29F4CF5FC530C1F745
:1058E00080E001C081E0CF9108950E9421080C94CE
:1058F000D6051F920F920FB60F9211248F939F938C
:10590000AF93BF938091E503811113C080917D0413
:1059100090917E04A0917F04B09180044196A11DD6
:10592000B11D80937D0490937E04A0937F04B09377
:105930008004BF91AF919F918F910F900FBE0F90F8
:105940001F90189582E084BD93E095BD9AEF97BDB6
:1059500080936E0008952FB7F89480917D04909104
:105960007E04A0917F04B09180042FBF08952FB7CB
:10597000F89460917D0470917E0480917F049091F1
:1059800080042FBF08959C014FB7F89480917D0447
:1059900090917E04A0917F04B09180044FBF821B40
:1059A000930B089578941F920F920FB60F921124C3
:1059B0008F939F93AF93BF9380917D0490917E04CA
:1059C000A0917F04B09180040196A11DB11D809328
:1059D0007D0490937E04A0937F04B0938004BF91D4
:1059E000AF919F918F910F900FBE0F901F901895C0
:1059F00081E08093E00080E28093D8001092C9009B
:105A00008FE19EE40197F1F700C0000087E090EB82
:105A1000DC0180938E0490938F04A0939004B09344
:105A200091049CE088E10FB6F894A89580936000FB
:105A30000FBE90936000FFCF8091F1030895089509
:105A4000CF93DF9321E02093E9002FEF3091E8001E
:105A5000215035FD06C035ED3A95F1F700002111D2
:105A6000F5CF2091E80025FF14C0EC0140E050E0A4
:105A700068E070E00E949A2F8091E8008E77809312
:105A8000E80088E0FE01A9EEB3E001900D928A954E
:105A9000E1F7DF91CF9108958093E6037093E803D7
:105AA0006093E703809185048430F9F48093E900E2
:105AB0008FEF9091E800815095FD06C095ED9A9585
:105AC000F1F700008111F5CF8091E80085FF0DC04E
:105AD00040E050E063E070E086EE93E00E949A2F91
