:100000000C94A6020C94ED020C94ED020C94ED02FB
:100010000C94ED020C94ED020C94ED020C94ED02A4
:100020000C94ED020C94ED020C94E11F0C94B3209F
:100030000C946F1A0C94ED020C94ED020C94ED02EA
:100040000C94ED020C94ED020C94ED020C94ED0274
:100050000C94ED020C94C81A0C94ED020C94ED0271
:100060000C94ED020C94ED020C94ED020C94ED0254
:100070000C94ED020C94ED020C94ED020C94ED0244
:100080000C94ED020C94ED020C94ED020C94ED0234
:100090000C94ED020C94ED020C94ED020C94ED0224
:1000A0000C94ED020C94ED020C94ED021306130671
:1000B0003F063F06BA06E207E207E207D806400716
:1000C00051075107D207E207E207DB0784088408DB
:1000D000960896088D08960896089608840884085D
:1000E0009208960896089208C714CA14EB14F814DC
:1000F00000150B150E150E150E1561156115111550
:10010000141519152A153A153D15411551152021BB
:1001100047213F2247213F229321B6213F220D2232
:100120001C2229001E001F002000210022002300A5
:1001300024002500260027002D002E0031002A0073
:100140002B0014001A000800150017001C001800EE
:100150000C00120013002F003000310000003900A5
:1001600004001600070009000A000B000D000E0035
:100170000F0033003400280000000000E10064009C
:100180001D001B00060019000500110010003600BC
:1001900037003800E50001510000E000E300E20014
:1001A0000000000000002C00000000000000000023
:1001B000E600E700E400000001003A003B003C00DC
:1001C0003D003E003F00400041004200430044002B
:1001D000450001004C000100010001000100010088
:1001E0000100010001000100010001000100010007
:1001F000005C00000100010001000100010001009D
:1002000001000100010001000100010001000000E7
:1002100000000100010001000100010001000100D7
:1002200001000100010001000100010001000000C7
:1002300001000100010000000000000001000000BA
:1002400000000000000001000100010000000100AA
:100250000100010001000100010001000100010096
:100260000100010001000100010001000100010086
:100270000100010001000100010001000100010076
:100280000100010001000100000001000100010067
:100290000100010001000100010001000100010056
:1002A0000100010000000000010001000100010048
:1002B0000100010001000100010001000100010036
:1002C0000100010000000100010001000000000029
:1002D000000001000000000000000000010001001B
:1002E0000100000001000100010001000100010007
:1002F00001000100010001000100010001000100F6
:1003000001000100010001000100010001000100E5
:1003100001000100010001000100010001000000D6
:1003200001000100010001000100010001000100C5
:1003300001000100010001000100000000000100B7
:1003400001000100010001000100010001000100A5
:100350000100010001000100010000000100010096
:10036000010000000000000001000000000000008B
:10037000000001000100010000000000000000007A
:1003800000002A2B280000000000000000000000F0
:10039000000000000029000000002C1E3420212253
:1003A00024342627252E362D3738271E1F202122BC
:1003B000232425263333362E37381F040506070835
:1003C000090A0B0C0D0E0F10111213141516171825
:1003D000191A1B1C1D2F3130232D35040506070863
:1003E000090A0B0C0D0E0F10111213141516171805
:1003F000191A1B1C1D2F3130354C00000000000065
:1004000000000000000000000000000000000000EC
:1004100000000000000000000000000000007E0F4F
:1004200000D4FFFFFFC700000078100350006C00ED
:10043000610069006E0036003000000008034D00C6
:100440004B00440000000403090409025B0003019F
:1004500000A0FA09040000010301010009211101B3
:1004600000012240000705810308000A0904010079
:1004700002030000000921110100012222000705EA
:100480008203200001070503032000010904020084
:1004900001030000000921110100012232000705BB
:1004A000840320000A12010002000000084C47608B
:1004B000500100010200010660FF0961A10109620B
:1004C000150026FF00952075088102096315002696
:1004D000FF00952075089102C005010980A10185E2
:1004E0000319012AB700150126B70095017510817F
:1004F00000C0050C0901A101850419012AA00215FB
:100500000126A002950175108100C005010906A110
:1005100001050719E029E7150025019508750181F6
:10052000029501750881010507190029FF150026AC
:10053000FF00950675088100050819012905950534
:1005400075019102950175039101C00011241FBE30
:10055000CFEFDAE0DEBFCDBF04B603FE27C0809147
:100560005A0290915B02A0915C02B0915D028730CB
:10057000904BA740B04BD1F410925A0210925B02FC
:1005800010925C0210925D0214BE84B7877F84BF14
:100590000FB6F894A8958091600088618093600000
:1005A000109260000FBEE0E0F8E3099511E0A0E0D2
:1005B000B1E0E2EAF5E402C005900D92A639B10778
:1005C000D9F722E0A6E9B1E001C01D92AA35B20731
:1005D000E1F70E940C140C94CF220C94000081E0EF
:1005E000089581E008950C94F10208950C94F502A9
:1005F0001F93CF93DF9300D000D01F92CDB7DEB70B
:1006000049835A836B833091980189819A81311192
:1006100014C0662359F0222349F00E947A09182F4A
:10062000682F89819A810E94230903C00E944E0984
:10063000182F69817A81812F04C00E947A0969810B
:100640007A810F900F900F900F900F90DF91CF91C4
:100650001F910C944716FC01262F40815181628125
:10066000738184810C94F80281E00895CF93DF9325
:10067000EC0160E00E942B03BE01DF91CF910C944E
:10068000F602E1E0F0E0DF0102C0AA0FBB1F6A95AD
:10069000E2F7BD01DF0102C0AA0FBB1F4A95E2F7D6
:1006A000AD01462B01C0EE0F2A95EAF7942F98234F
:1006B000491302C08E2B0895E0958E230895242FB0
:1006C000462F682F8091B7010E9441030C94E008E7
:1006D0000E948A120E94C6040C94BD120C94B91296
:1006E00080E00C94C70408950C9473030E94720870
:1006F0000E9474032FEF84E39CE0215080409040DF
:10070000E1F700C000000C94EE1A0F931F93CF93F3
:10071000DF93EC018B010E947614882309F444C016
:10072000B801CE010E94F3028823F1F1B801CE0195
:100730000E9421198823C1F1B801CE010E944B17F4
:10074000882391F1B801CE010E947D18882361F1C0
:10075000F8018281882309F1CA358DE5D807C1F0F7
:1007600050F4C115FCE5DF0781F0CE3DDC45A9F46E
:100770000E94770F19C0CB35EDE5DE0761F0CC356F
:10078000DD4559F40E94BB0E08C00E9476030CC0E0
:100790000E94C40E02C00E94C70EC801DF91CF9113
:1007A0001F910F910C94EF0280E0DF91CF911F9188
:1007B0000F910895CF93DF93EC0161E00E942B032A
:1007C000BE01DF91CF910C9485030C9473030E94BA
:1007D0007D190E94C7040C94E503DF92EF92FF920B
:1007E0000F931F93CF93DF93E82FF0E0E658FC4F71
:1007F000D490282F26952695269530E0F901E65EBF
:10080000FB4F0491877010E0082E02C015950795E4
:100810000A94E2F701701127F901E65FFB4FE490BB
:10082000F12C082E02C0F594E7940A94E2F791E0C7
:10083000E922FF24F901E650FC4FC491D0E002C048
:10084000D595C7958A95E2F7C170DD270115110589
:1008500019F081EE0E943405E114F10419F086EEDE
:100860000E9434058D2D0E94C505EF2819F086EEF3
:100870000E948205012B19F081EE0E948205CD2B8A
:1008800051F08CE2DF91CF911F910F91FF90EF908B
:10089000DF900C94C505DF91CF911F910F91FF90D0
:1008A000EF90DF900895EF92FF920F931F93CF93F5
:1008B000DF93EC01162F0AE08881882309F455C0E4
:1008C000813009F043C08981813041F47E0182E0AA
:1008D000E80EF11C8A810E94C50509C0823049F4E6
:1008E0007E01E2E0EE0EF11C8A810E943405E701F0
:1008F0002FC0833041F47E01F2E0EF0EF11C8A81BB
:100900000E948205F4CF843011F0219621C02A8103
:10091000229680E090E030E0205331092A30310502
:1009200058F4089FA001099F500D1124C901840F9C
:10093000951F21962881EFCF009751F0EFE9FFE056
:100940003197F1F700C000000197F6CF0E94ED0348
:100950002196812F882309F4AFCFEFE9FFE031978B
:10096000F1F700C000008150F5CFDF91CF911F91CA
:100970000F91FF90EF90089560E00C945304089558
:100980000C94BF0481E008950C94C2040895CF93A1
:10099000C82F0E94C0048C2F0E94C404CF910895D8
:1009A0000F931F93CF93DF93CDB7DEB72B970FB67F
:1009B000F894DEBF0FBECDBF4F83588769877A8713
:1009C0008B8761110E94D00D8E010F5F1F4F86E053
:1009D000F80111928A95E9F785E0FE013796D80172
:1009E00001900D928A95E1F78091340282FD0CC04E
:1009F0000E94930D882319F082E00E94890E0E94C4
:100A00007A0D81110E94030E99818A812C813D818A
:100A1000232B31F08F3F31F481E09F3F19F403C065
:100A200081E001C080E080FF09C049815A816B816B
:100A30007C818D819E810E94C90C05C0C8010E94E5
:100A400034038111F2CF2B960FB6F894DEBF0FBEA0
:100A5000CDBFDF91CF911F910F910895FC0180814F
:100A600091810E94A7090895CF93882309F448C073
:100A7000C82F8CEF8C0F813AD0F46C2F809102013B
:100A8000909103010E94CC19882349F06C2F80912A
:100A90000201909103010E94041A0E94110E6C2F12
:100AA00080910201909103010E94021A0CC080E221
:100AB0008C0F883058F4C77081E001C0880FCA9548
:100AC000EAF70E94B30DCF910C94110EEBE5EC0FF9
:100AD000E33040F4F0E0E15CFE4F808190E0CF91A4
:100AE0000C949419C85AC73158F4EC2FF0E0EE0F6B
:100AF000FF1FEF5EFE4F80819181CF910C94AA1968
:100B0000CF910895882349F1682F8CEF860F813AA1
:100B100038F480910201909103010E94041A0CC0E4
:100B200080E2860F883050F4677081E001C0880F42
:100B30006A95EAF70E94B90D0C94110E8BE5860FA9
:100B4000833020F480E090E00C949419685A673167
:100B500020F480E090E00C94AA1908951F93CF939D
:100B6000DF93182FEB010E943405209741F08FE9A5
:100B70009FE00197F1F700C000002197F6CF812F89
:100B8000DF91CF911F910C948205893319F060E0B9
:100B900070E002C060E570E00C94AE05882321F09F
:100BA0000E94B30D0C94110E0895882321F00E9429
:100BB000B90D0C94110E0895CF92DF92EF92FF922F
:100BC0000F931F93CF93DF937C01D62FC72FFC0188
:100BD0000281158112951F700E94A90D8823B9F01A
:100BE0000023A9F08C2F807F803421F080E28D0FCC
:100BF000883068F08091340282FD09C082E00E9452
:100C0000890E0E94A90D91E0D82ED92601C0D12CC1
:100C1000CC2EC2948FE0C8228C2D90E0FC01EA5AC1
:100C2000FF4F0C9473228C2F807FCF70882311F09C
:100C3000C295C07F002399F0CC2309F49DC180E2C6
:100C40008D0F883010F0D11104C08C2F0E94B30D8D
:100C500003C08C2F0E94C30D0E94110E8DC18D2FD9
:100C60000E948205CC2309F4ADC180E28D0F88304B
:100C700040F1DD2331F18C2F0E94C90D25C08C2F4E
:100C8000807FCF70803211F0C295C07FDD2321F0CC
:100C9000D13009F446C04FC08091340282FF17C0A2
:100CA000002349F0CC2329F08C2F0E94B30D0E9421
:100CB000110E80E062C180E00E948205CC2309F41D
:100CC00081C18C2F0E94B90D0E94110E7BC100239F
:100CD000B1F0112381F0113031F40E94E30D8C2B1F
:100CE0000E94EB0D6FC1153031F40E94030E8C2F62
:100CF0000E944F0E2AC00E94E30D8C2B27C01123A7
:100D000069F0113041F40E94B00D8C2309F45AC1EE
:100D10000E94580E03C0153009F454C10E94030EFE
:100D200025C0002321F0163008F04CC10EC015304C
:100D300008F048C11BC0002361F0112331F0F70116
:100D4000858180FF19C18F7085838C2F0E94CE050D
:100D500039C1112359F0D93309F020C1FFEF27EE33
:100D600083E0F15020408040E1F716C18C2F0E94B3
:100D7000D50528C18C2F86958695837019F0813012
:100D800061F020C1002321F08D2F9C2F937002C0B1
:100D900080E090E00E9494191DC1002321F08D2F66
:100DA0009C2F937002C080E090E00E94AA1912C1AB
:100DB0008C2F837079F5011109C14D2F429546950D
:100DC0004770440F440F2D2F2F70042E01C0220FA7
:100DD0000A94EAF7D4FF08C08FE090E001C0880FC2
:100DE0004A95EAF7809501C080E0C695C695C37024
:100DF000822BC23049F058F4C13019F00E94D40857
:100E0000E5C00E94CF08E2C00E94D908DFC00E945E
:100E1000CD08DCC0002319F08C2F817001C08695AD
:100E2000882309F4D3C04D2F429546954770440F4F
:100E3000440F2D2F2F70042E01C0220F0A94EAF7C1
:100E4000D4FF08C08FE090E001C0880F4A95EAF710
:100E5000809501C080E0C695C695C370822BC230D4
:100E600049F058F4C13019F00E941809AFC00E942F
:100E70001309ACC00E941D09A9C00E94E008A6C0C9
:100E8000CF70002339F08C2F0E94F1088D2F0E9423
:100E9000CE059CC08D2F0E94D5058C2F0E94FC088A
:100EA00095C0D23F21F128F4D03F41F0D13FC1F0AD
:100EB0005EC0D33F19F1D43F79F059C0002341F00F
:100EC000153008F07FC08C2F8F710E9408097AC0FE
:100ED000163008F077C0F7CF8091340282FF18C037
:100EE000002339F08C2F8F710E94F1086BC0002312
:100EF000C9F38C2F8F710E94FC0864C0002329F075
:100F00008C2F8F710E94E9085DC00E94E6085AC0CC
:100F10000023C9F00E94770D0E94B90D0E948F0D29
:100F2000843039F40E94800E8C2F8F710E94FC084F
:100F30006CC0153008F069C0CF718C2F0E94F10889
:100F400063E08C2F0DC00E94770D0E94B30D153009
:100F500050F00E94800E0E94580E64E08C2F8F711A
:100F60000E94640E52C081E00E94890E4EC0002390
:100F700039F0112309F4B6CF8D2F0E94340522C019
:100F8000112309F4B6CFD93349F49FEFE7EEF3E02C
:100F90009150E040F040E1F700C000008D2F0E942A
:100FA000820510C04C2F4F706D2FC7010E94731027
:100FB0000E94D5090FC04C2F4F706D2FC7010E94A2
:100FC000761008C088EF8C0D843020F40E947D19C3
:100FD0000E94C704DD20D9F00E948F0D80FD17C04C
:100FE000F70112820E94890D0E94F108C7010E9438
:100FF00028080E94890DDF91CF911F910F91FF90DA
:10100000EF90DF90CF900C94FC08D12CDFCFDF91D4
:10101000CF911F910F91FF90EF90DF90CF900895A7
:101020000F931F93CF93DF93EC01688179818A81BD
:101030000E94B2098C010E9422090E94C108B801D5
:10104000CE010E94DC05DF91CF911F910F91089591
:10105000CF93DF93EC01988189812B813C81232BF5
:1010600031F08F3F31F481E09F3F19F403C081E0FC
:1010700001C080E080FD1DC0CE010E94DA03811115
:1010800010C00E94A90D8823A1F08A81882389F0CD
:101090008091340282FD0DC082E0DF91CF910C94EB
:1010A000890ECE010E941008CE01DF91CF910C94E1
:1010B0003603DF91CF91089580E090E00E9494196B
:1010C00080E090E00E94AA190E94D00D0E94E00DDD
:1010D0000C94110E80910201909103010E94061A56
:1010E0000C945C080E94C00D0C946A08E92FE295EC
:1010F000EF704E2F50E0FA013297EE30F105B0F468
:10110000EA59FF4F0C947322803F91F018F4883E07
:1011100068F40EC0843F51F40BC0883E48F0813F14
:1011200029F406C093FB882780F9089580E008958C
:1011300081E00895FC01808191810E94A7090E94AD
:1011400076080895CF93DF9300D000D01F92CDB7DB
:10115000DEB70F900F900F900F900F90DF91CF910F
:101160000895CF93DF9300D000D000D0CDB7DEB785
:1011700026960FB6F894DEBF0FBECDBFDF91CF919C
:101180000895089508950C94C2080C94C3080E9411
:10119000C5088093B8010C945C080C94C708909122
:1011A000B801892B0C94C7089091B80189230C943D
:1011B000C7089091B80189270C94C7080C94C208FD
:1011C0000E94DE088093B7010C945C0880E00C94C8
:1011D000E00891E001C0990F8A95EAF7892F0C94F5
:1011E000E00821E030E001C0220F8A95EAF7809103
:1011F000B701822B0C94E00821E030E001C0220FFF
:101200008A95EAF720958091B70182230C94E00833
:1012100021E030E001C0220F8A95EAF78091B70102
:1012200082270C94E0089091B701892B0C94E00878
:101230009091B70189230C94E0089091B701892718
:101240000C94E00808952FE0929F800D1124E82F60
:10125000E695E695E695877051E001C0550F8A95B1
:10126000EAF783E0E89FF0011124E756FE4F20E003
:1012700030E070E04081CB01022E02C09695879548
:101280000A94E2F7817081958427852384278193CE
:101290002F5F3F4F2330310569F708952FE0929F6C
:1012A000800D1124682F669566956695982F977026
:1012B00083E0689FB001112440E050E080E0FB0132
:1012C000E40FF51FE756FE4F208130E0092E02C0E3
:1012D000369527950A94E2F721703327042E01C032
:1012E000220F0A94EAF7822B4F5F5F4F433051057C
:1012F00031F70895CF92DF92FF920F931F93CF9310
:10130000DF936C010091B7018091B801082BC7E011
:10131000D0E010E0C8010C2E02C0959587950A9484
:10132000E2F780FD04C02197A8F7F12C07C0FC2E3E
:10133000B6018C2F0E9494110197A9F38F2DDF9194
:10134000CF911F910F91FF90DF90CF900895CF9391
:10135000DF93EC010E947A09BE010E949411DF9193
:10136000CF9108951F93CF93DF93EB019091980154
:10137000992321F0CB010E94A70913C0882349F0CB
:10138000CB010E947A09182F682FCE010E942309F1
:1013900004C0CB010E944E09182FBE01812F0E946C
:1013A0009411DF91CF911F910895EF92FF920F93C7
:1013B0001F93CF93DF938C01892B09F46CC0F12C20
:1013C000EE24E394E8012196F8018491843740F4F7
:1013D000843008F051C0813081F0823019F15BC057
:1013E000853709F444C0A8F19CE7980F903708F0BE
:1013F00052C08F770E94820541C00E5F1F4FFE01D1
:10140000849190E2980F983050F48770FE2D01C0BF
:10141000FF0F8A95EAF78F2F0E94D30D14C00E9408
:1014200034052DC00E5F1F4FFE01849190E2980F8E
:10143000983060F48770FE2D01C0FF0F8A95EAF79F
:101440008F2F0E94D90D0E94110E19C00E94820593
:1014500016C00E5F1F4FFE01C491CC2381F08FE9AF
:101460009FE00197F1F700C00000C150F6CF0E5F7A
:101470001F4FFE01F49003C00E9434058E018F2D92
:10148000882309F49FCFEFE9FFE03197F1F700C01F
:1014900000008150F5CFDF91CF911F910F91FF9008
:1014A000EF9008951F93CF93DF93C091B90116E099
:1014B0008091BA01C81799F0D0E01C9FF0011D9FE0
:1014C000F00D1124E554FE4F4081518162817381FA
:1014D000848195810E94B1082196C770E9CFDF9180
:1014E000CF911F9108954091EB015091EC016091D3
:1014F000ED017091EE018091EF019091F0010C945B
:10150000B108EF92FF920F931F93CF93DF938091D7
:10151000F00182958F7009F065C08091ED018823FC
:1015200009F460C08091B901F090BA011091EB010B
:101530000091EC016091EE017091EF0191E01F3F8D
:1015400009F090E0C0910001D0910101292F96E0AF
:10155000E92E8F1509F446C06115710521F00F3F82
:1015600021F030E003C031E001C0322F90E030FDC7
:1015700036C0E89EF001E99EF00D1124DF01A5546C
:10158000BE4F11963C911197301329C03C913113F5
:1015900026C012963C911297311121C013964D919D
:1015A0005C911497461B570B4C175D07C0F4809154
:1015B000F0018F7080618093F001E054FE4F8081D4
:1015C0008F70806180838BEE91E00E942808DF910C
:1015D000CF911F910F91FF90EF900C94520A0196BA
:1015E0008770B7CFDF91CF911F910F91FF90EF9050
:1015F00008959F92AF92BF92CF92DF92EF92FF92A7
:101600000F931F93CF93DF93CDB7DEB761970FB6DC
:10161000F894DEBF0FBECDBF8C0185E0F801DE017E
:101620001D9601900D928A95E1F7D8011296EC90E3
:101630009091EB01E091EC012091EE013091EF01EE
:101640002115310531F0EF3F31F481E09F3F19F46E
:1016500003C081E001C080E0B82FB1709B2E80FDF7
:1016600047C1D8014C9111965C9111971396AD909A
:10167000BC9014978BEEC82E81E0D82EF090ED012F
:10168000B501621B730B2091000130910101FF2015
:1016900009F4D9C08091F0016217730708F095C072
:1016A000282F207F09F052C05E1313C0491311C0C8
:1016B000FE2CE1100EC08F7080618093F0010E94BB
:1016C000730AC6010E9428088091F001F801858301
:1016D0004DC1AB2831F05F3F31F481E04F3F19F449
:1016E00003C081E001C080E080FD03C081E08E2561
:1016F00002C080E090E0F82FF170FF2E80FF1CC048
:101700008091B9012091BA0136E0821709F40BC12A
:1017100090E0389FF001399FF00D1124E554FE4F01
:101720006181561306C06081461303C06281E612D0
:1017300003C001968770E9CFFE2CEE2009F416C194
:101740008091F00181608093F00154C05E1306C067
:10175000491304C0E11002C0F80199C0C8010E94F9
:101760009A08882361F1EE2051F12091F001822F37
:1017700082958F7090E0029774F08091EB019091C8
:10178000EC0198878F831986BB86AA862C87CE01A9
:1017900007960E94280886E0F801ABEEB1E00190C0
:1017A0000D928A95E1F70E94810A0E94730A0AC08D
:1017B0005E1711F1C8010E949A0881112CC0C8015E
:1017C0000E942808FF24F394D1C0282F207F81F79E
:1017D0007A2DB98AA88A6E2D89890E94A2088BEE7B
:1017E00091E00E94280886E0D6011D928A95E9F7CB
:1017F0000E94730AF12CBAC04913DCCFE110DACF92
:10180000F8018583C8010E94280886E0D6011D9250
:101810008A95E9F7ABC0EE2091F22091F001822F7A
:1018200082958F7090E002970CF4B5CF8091EB0118
:101830009091EC019A8389831B82BD82AC822E83B6
:10184000CE010196A6CF6217730708F044C0FE2CA4
:10185000EE2009F4B4CF5E1330C049132EC020919E
:10186000F00120FD21C0822F82958F70482F50E01B
:1018700041155105C9F0F80125834F30510541F05C
:101880008F5F982F9295907F822F8F70892B858301
:10189000C8010E94280886E0F801ABEEB1E0019093
:1018A0000D928A95E1F73CC086E0F801ABEEB1E01D
:1018B00001900D928A95E1F759C0C8010E949A08DB
:1018C000811169CF8091F00181608093F001C8019E
:1018D0000E9428084BC07A2DB98AA88A6E2D898962
:1018E0000E94A20886E0D6011D928A95E9F718C0E9
:1018F000EE2009F464CFC8010E949A08F82E8823CC
:1019000009F45DCF86E0F801ABEEB1E001900D92F5
:101910008A95E1F78BEE91E00E942E050E94810AE4
:101920000E94730A23C04D875E878D859E850E9425
:10193000A709292F22952F70223028F49F7039F0A3
:10194000811105C00BC0243028F49F7049F4805EDB
:10195000883020F0C8010E9428089F2CF92C06C06E
:10196000D80115969C91907F91F7F8CF8F2D6196B5
:101970000FB6F894DEBF0FBECDBFDF91CF911F91A0
:101980000F91FF90EF90DF90CF90BF90AF909F901E
:1019900008951F93CF93DF93CDB7DEB72C970FB683
:1019A000F894DEBF0FBECDBF4F83588769877A8713
:1019B0008B879C87CE0107960E94F90A8823D1F075
:1019C0009F8188852A853B85232B31F08F3F31F419
:1019D00081E09F3F19F403C081E001C080E080FDF9
:1019E00047C04F81588569857A858B859C850E9483
:1019F000B1083EC086E0FE013796DE0111960190E7
:101A00000D928A95E1F7FF81E8856A857B856115EE
:101A1000710531F0EF3F31F481E0FF3F19F403C06D
:101A200081E001C080E080FD23C02091BA0130E058
:101A3000C9010196877099274091B90150E0841738
:101A40009507F1F1F983EA837D836C8396E0929F99
:101A5000D001939FB00D1124A554BE4FFE013196C5
:101A600001900D929A95E1F78093BA010E94520A73
:101A700016E08091B9019091BA01891771F1189F10
:101A8000C001112485549E4F0E94F90A882329F130
:101A9000E091B9011E9FF0011124E554FE4F4081F1
:101AA000518162817381848195810E94B108809106
:101AB000B90190E00196877099278093B901D9CF39
:101AC0000E9472081092BA011092B901EBEEF1E097
:101AD00086E0DF011D928A95E9F72C960FB6F894FF
:101AE000DEBF0FBECDBFDF91CF911F9108958091D2
:101AF000F60108950E94A11A2091F4013091F50198
:101B0000821B930B9C0181E02838334108F480E06C
:101B100008958091F3018595859585950895809127
:101B2000F301877008950E94A11A2091F10130916C
:101B3000F201821B930B8838934140F08091F301AE
:101B400082FB882780F991E0892701C080E08170BD
:101B500008959091F301977081E009F480E0089571
:101B600080910202089590910202892B80930202D3
:101B7000089580959091020289238093020208952E
:101B800010920202089590910102892B8093010224
:101B90000895809590910102892380930102089510
:101BA00010920102089590910002892B8093000207
:101BB00008958095909100028923809300020895F2
:101BC0001092000208958091F701089508950C94F1
:101BD000E60D0C94E70DCF939091340292FD11C065
:101BE0009091F701981769F0C82F0E94A11A90935D
:101BF000F5018093F401C093F7018C2FCF910C94E1
:101C0000E90DCF9108958091F701882349F0109252
:101C1000F7011092F5011092F40180E00C94E90DA7
:101C20000895E0910201F091030180910202808306
:101C3000E0910201F0910301908180910102892BD2
:101C40008083E0910201F091030190818091000274
:101C5000892B80838091F7018823B9F00E947A0D47
:101C600081110E94030EE0910201F0910301908125
:101C70008091F701892B808380910201909103016B
:101C80000E94C01981110E94030E8091020190915F
:101C900003010C9489190C94E60D0C944B0E909151
:101CA000F601981721F08093F6010C944D0E0895DB
:101CB0008091F601882329F01092F60180E00C94BF
:101CC0004D0E08950C94E60D9091340292FD16C0CD
:101CD00098E0899F90011124262B2093F3010E9404
:101CE000F1080E94A11A9093F2018093F101809172
:101CF000F3018595859585950C94620E0C94F108F9
:101D00001092F3011092F2011092F10180E00C9414
:101D1000620E2091F301809582238093F301982F26
:101D2000977099F430E0482F082E000C550B2417BB
:101D3000350759F09091340292FD07C0859585953D
:101D400085950E94FC080C94800E089590913402B1
:101D500092FB222720F9281769F080FB92F99093D3
:101D6000340280913302909134020E94F40E82E09A
:101D70000C94890E08958091340282FB882780F9A3
:101D800091E089270C94A60E81E00C94A60E80E0C9
:101D90000C94A60E6FEF7FEF80E090E00C94B922D8
:101DA00080E090E00E9495228A3E9E4F11F40C94B0
:101DB000191480E0089582E090E00C948D2283E075
:101DC00090E00C948D22CF9384E090E00E948D22CD
:101DD000C82F82E290E00E948D222C2F30E0A901D2
:101DE000582BCA01CF910895CF93C92F682F84E053
:101DF00090E00E949B226C2F82E290E0CF910C94A5
:101E00009B22AB01BC018FE090E00C94AD22AB01B2
:101E1000BC0183E190E00C94AD2260E070E0CB0166
:101E20000C94070F60E070E0CB010E94010F0C944E
:101E30000D0F6AEE7EEF80E090E00E94B92260E034
:101E400082E090E00E949B2260E083E090E00E94AC
:101E50009B221092B80160E084E090E00E949B22F7
:101E600060E082E290E00E949B2260E085E090E0EA
:101E70000E949B2260E086E090E00E949B226FEF30
:101E800087E090E00E949B2240E050E0BA0188E0A9
:101E900090E00E94AD2260E08DE090E00E949B22E5
:101EA00040E050E0BA0188E190E00E94AD2260E09D
:101EB00087E190E00E949B2240E050E0BA018CE173
:101EC00090E00E94AD2260E070E080E290E00E942D
:101ED000B92240E050E0BA0188E190E00E94AD22D2
:101EE00080E00E9432140E945E140C94120F0C9435
:101EF000190F682F8EE090E00C949B220E94AD1A7F
:101F0000609312027093130280931402909315024F
:101F100060930E0270930F0280931002909311024F
:101F2000089585B7806885BF85B7806885BF0895A7
:101F300081E008950C94980F08950C949C0F0C94D4
:101F40009C0F0C949F0F0C949C0F0C94A30F0C945B
:101F50009C0F0E94910F80E792E10E9473190E94EA
:101F6000A70F0C94A50F0E949D0F0C949C0F0E942C
:101F7000981A0E946D140E9465130C94A10F6F9221
:101F80007F928F929F92AF92BF92CF92DF92EF9209
:101F9000FF920F931F93CF93DF93CDB7DEB72A97AE
:101FA0000FB6F894DEBF0FBECDBF0E947A13811129
:101FB0000E947E0F34E0832E32E0932E00E010E08A
:101FC000C02E802F0E94A4125C01F40161907190D8
:101FD0004F016826792661147104B1F40F5F1F4F19
:101FE0000530110569F78FEF89838A831B820E9470
:101FF000A11A8160782F9D838C8349815A816B81DE
:102000008D810E94D0043AC08091160281FD0E9409
:10201000AD12D12CEE24E394F12CC3018E219F212B
:10202000892B29F10E949A0F8823A9F0DE82CF82A2
:10203000AE20BF2081E0AB2809F480E088870E94B1
:10204000A11A8160782F9A8789874E815F81688580
:102050008A850E94D004000F111FF801EC5FFD4F2C
:1020600080819181E826F926F182E08207C0D3942D
:10207000EE0CFF1CFFE0DF12D0CFB0CF0E947D1925
:10208000909103028917D1F00E947D198093030279
:102090002A960FB6F894DEBF0FBECDBFDF91CF9169
:1020A0001F910F91FF90EF90DF90CF90BF90AF9076
:1020B0009F908F907F906F900C94C7042A960FB6D4
:1020C000F894DEBF0FBECDBFDF91CF911F910F916E
:1020D000FF90EF90DF90CF90BF90AF909F908F9048
:1020E0007F906F90089580E090E008950895880FA4
:1020F000991FFC01E65DFB4F859194910895CF9364
:10210000DF930E949911EC01811520E5920708F0F8
:1021100041C0811540E4940708F0CBC0803E910592
:1021200020F5803C910508F0B8C0883A910570F41C
:10213000853A910508F0A8C08130910509F4A1C045
:1021400008F4EBC0049708F0EBC0E7C08F3B9105A3
:1021500008F0E3C0885AC82FD0E0CC0FDD1FCE5B5B
:10216000DE4F888199819464DCC0811550E2950727
:1021700050F4C11581E0D80708F0D2C0C83ED1059F
:1021800008F4CEC0CAC0811520E3920708F08AC0C7
:102190009F7085C0811545E5940708F046C08115FC
:1021A00054E5950708F09DC0C11582E5D80718F5DC
:1021B000C11521E5D20708F07FC0CE01F4E0969565
:1021C0008795FA95E1F7282F23703C2F337081E033
:1021D00090E002C0880F991F3A95E2F79C68922B15
:1021E0002C2F2F702695269540E2249F90011124D4
:1021F000822B932B96C09E01237033279C2F96959C
:102200009695C115D34508F05CC041E050E002C08E
:10221000440F551F2A95E2F780E2989F9001112400
:10222000CA01822B932B9C687CC0811559E59507C8
:1022300098F4C11588E5D80708F058C0C11526E5FF
:10224000D20708F06AC08C2F0E942D128F7190E087
:10225000982F8827906265C081154AE5940708F495
:102260004AC090568115904208F057C08D2F8F714B
:102270000E942D129E01332730628F71A901582BC5
:102280004AC081E090E04DC0855AC82FD0E0C059C7
:10229000DE4F888190E0906444C0805C91090E9488
:1022A00077103FC09927D3FF02C0986C3AC0906C5A
:1022B00038C09F70906A35C09C2F8827816F906AC4
:1022C00030C041E050E002C0440F551F2A95E2F7AC
:1022D00080E2989F90011124CA01822B932B9A6867
:1022E00020C0982F8827846F906A1BC09C2F882756
:1022F000806F906A16C08F700E942D129E0194E02C
:10230000369527959A95E1F72F7030E0322F2227E6
:102310003069A901482BCA0104C080E090E001C0E7
:10232000CE01DF91CF9108950E9447160E947F1041
:1023300008958238910569F1B0F48133910509F46B
:102340006DC048F48932910509F463C08A32910561
:1023500009F469C008958533910509F455C089339E
:102360009105B9F00895833E910569F138F4803EF6
:102370009105B1F0823E910509F10895863E9105DF
:10238000A9F1873E9105B9F1843E910509F064C039
:1023900023C02091330220FD4FC021FD4DC0089580
:1023A0008091330280FD44C08091340280FF44C09C
:1023B0008091330284FD42C083EE4DC08091330290
:1023C00082FF38C0F5CF8091330282FD33C0809107
:1023D000340280FD31C0ECCF8091340281FF32C0E5
:1023E0008091330284FD2AC087EE35C0809133028C
:1023F00083FF26C0F5CF8091330283FD21C08091F9
:10240000340281FD1FC0ECCF8091330285FD1CC0DA
:102410001DC08091330285FD19C016C08091330222
:1024200086FD16C017C08091330286FD13C010C010
:1024300089E311C082EE0FC080EE0DC080E00BC0BA
:1024400086EE09C084EE07C089E205C085E303C0BB
:102450008AE201C081E390E008959091330292FFF7
:102460000DC0282F2871283019F4877F846006C09A
:10247000282F2471243011F48B7F886093FF0DC0C6
:10248000282F2871283119F4877E846106C0282FEF
:102490002471243111F48B7E88612091340220FF55
:1024A0000DC0382F3871383019F4877F816006C02D
:1024B000382F3171313011F48E7F886021FF0DC0CB
:1024C000282F2871283119F4877E816106C0282FB2
:1024D0002171213111F48E7E886194FD877E0895EB
:1024E00080E008950C94CA0E0E947A138FE39CE951
:1024F0000197F1F700C000000E947A1380E00E946B
:10250000A41280FF04C00E9472120C94EE1A089567
:102510000C9474120E94D00E811102C00E94770F99
:102520000E94DB0E809316020E94E30E9093340209
:10253000809333020E9488120E94DF0E0E94CD0811
:102540008091B7010C94DE08E82FF0E0EE0FFF1F3A
:10255000E15CFD4F808191810895089580EA8A951C
:10256000F1F7089500C008950C94AE1208950C94EC
:10257000B6120C94B7120C94B6120C94BB12F894C9
:10258000E82FE295EF70F0E031A1282F2F7081E065
:1025900090E001C0880F2A95EAF7982F9095932331
:1025A00091A392A1892B82A3789408950F931F93EE
:1025B000CF93DF93C2E8D1E089918F3F11F00E9461
:1025C000BF1281E0C738D807B9F7C3E7D1E002E806
:1025D00011E089918F3F11F00E94BF120C171D0767
:1025E000C1F7DF91CF911F910F910895BF92CF92C4
:1025F000DF92EF92FF920F931F93CF93DF938C01A3
:10260000C62FD0E0CE018E579E4F6C01FC01908109
:102610009F3F09F450C0B62EF894E92FE295EF7071
:10262000F0E081A19F7021E030E001C0220F9A9577
:10263000EAF7822B81A382A12095282322A37894F4
:102640000E94B212E3E7F1E042E851E021E030E01D
:10265000E12CF12C61916F3F89F0A62FA295AF700C
:10266000B0E090968C9190E06F7002C09595879540
:102670006A95E2F780FD02C0C90102C080E090E0E7
:10268000E82AF92A220F331F4E175F0719F7F601C0
:1026900080818F3F11F00E94BF1261E0E114F104CC
:1026A00009F460E08B2D0E94B412CC0FDD1FC00F27
:1026B000D11FF982E882DF91CF911F910F91FF9096
:1026C000EF90DF90CF90BF9008950E94D6128AE0DD
:1026D000EFE3F2E0DF01982F1D929A95E9F7E5E329
:1026E000F2E0DF011D928A95E9F785E00E94C513AB
:1026F0000C946803FF920F931F93CF93DF93CDB792
:10270000DEB72A970FB6F894DEBF0FBECDBF8E019D
:102710000F5F1F4F8AE0F80111928A95E9F7F12CBB
:102720006F2DC8010E94F612F394F5E0FF12F8CF66
:102730004AE050E0B80185E392E00E948022FF2445
:10274000F394009709F4F12C892B41F08AE0F80109
:10275000A5E3B2E001900D928A95E1F72F2D45E0B7
:102760006FE372E085E392E00E94C6130E946E035D
:102770008F2D2A960FB6F894DEBF0FBECDBFDF9126
:10278000CF911F910F91FF9008950895FF920F939D
:102790001F93CF93DF93F82E092F162FD72FC42F17
:1027A000222349F081E0809319020E94A11A90939C
:1027B000180280931702809119028823D9F0809122
:1027C0001702909118020E94B91A059798F0EF2D00
:1027D000F02FA12FBD2F80E090E04C2F50E0841708
:1027E000950734F4219131912D933D930196F7CFC4
:1027F00010921902DF91CF911F910F91FF900895D0
:102800000E94B91C0E94B70F0C94C51C0E94C91CE1
:102810000E94BF0F0C94E31C0E94271A0E94A01C68
:102820000E94A90F0E9400140E9406140E94B30F78
:10283000FBCF83E290E00E948D22823281F484E219
:1028400090E00E948D22823051F485E290E00E9457
:102850008D2291E0823009F090E0892F01C080E064
:1028600081700895CF93C82F811102C06FEF01C00E
:1028700062E283E290E00E949B22C11102C06FEFEE
:1028800001C062E084E290E00E949B22C11102C07C
:102890006FEF01C062E085E290E0CF910C949B2243
:1028A000089586E290E00E948D22682F70E080E01B
:1028B00090E0089586E290E00C949B2280E00E94D4
:1028C000321460E070E0CB010E945A140E94C215DD
:1028D0000E94A11681E00C9432140E9450140E94B0
:1028E0001914811102C00C945E140895CF93FB015A
:1028F000C281CC23E9F09C0122513F4520313105B2
:1029000020F482510E94B1160CC08031FFE59F0770
:1029100051F481E00E94F10843E062E081E00E940E
:102920005F03C0E018C081319F45A9F482E0F2CF77
:102930008031EFE59E0711F481E004C081319F45AD
:1029400049F482E00E94FC0843E062E081E00E94DA
:102950005F0301C0C1E08C2FCF9108952FEFFC01E0
:1029600020830895EF92FF920F931F93CF93DF93ED
:10297000EC01162FE8818E2F90E0FC013197E331B6
:10298000F10508F09EC0EC58FF4F0C947322198299
:1029900089E04DC08981823041F0833069F0813017
:1029A00009F08FC00E94AD1A02C00E9451149A8390
:1029B0008B837C836D8389C07E0100E0802F0E9421
:1029C000A412F701928383830F5FF2E0EF0EF11CF4
:1029D0000530A1F77AC08981823009F072C06A811E
:1029E0007B818C819D810E9479220E945A146DC046
:1029F0004B816A8189810E9482159C838D8365C089
:102A00002C813D813227232732274B816A8189819E
:102A10000E94A3155AC00E94C21557C08FEF888329
:102A200054C00E9454162BC00E94561699838A8364
:102A30004CC089819A819827892798276B8170E0FB
:102A40006D31710508F041C0AE014C5F5F4F0E94CF
:102A500059163BC089819A819827892798276B81CD
:102A600070E06D31710588F5AE014C5F5F4F0E94DB
:102A70007E162BC00E94A11628C00E946F15898364
:102A800024C089819A819827892798276B8170E0D3
:102A90006D317105D0F4AE014C5F5F4F0E9401169D
:102AA00014C089819A819827892798276B8170E0C3
:102AB0006D31710550F4AE014C5F5F4F0E942516D9
:102AC00004C0612FCE010E94AE14612FCE01DF91B0
:102AD000CF911F910F91FF90EF900C94751B84E0A4
:102AE000089550E0440F551F2EE1629F400D511D87
:102AF00011249A0166E9869F200D311D1124C90118
:102B0000879608950F931F93CF93DF938430A0F49B
:102B1000653090F44F3080F40E9471158C010E9452
:102B20008D2290E0D82FCC27C80101960E948D22DB
:102B30009E01282BC90102C080E090E0DF91CF9177
:102B40001F910F9108950F931F93CF93DF938430BC
:102B5000A0F4653090F44F3080F4E9010E947115C3
:102B60008C016D2F0E949B226C2FC8010196DF9172
:102B7000CF911F910F910C949B22DF91CF911F91C8
:102B80000F910895AF92BF92CF92DF92EF92FF9292
:102B90000F931F93CF93DF93A12CE12CF12CB12C39
:102BA00000E010E0C0E0D0E06701C00ED11EFE01E1
:102BB000EE0FFF1FEC0DFD1DEE5DFE4F25913491D4
:102BC0004C2F6B2D8A2D0E94A3152196CF30D10555
:102BD00071F7025E1F4FB39485E0B812E3CF86E928
:102BE000E80EF11CA39484E0A812D9CFDF91CF9115
:102BF0001F910F91FF90EF90DF90CF90BF90AF901B
:102C00000895EF92FF920F931F93CF93DF93EA0102
:102C10007A01E60EF71E8C01C8018796CE15DF05F6
:102C200069F0083522E0120720F40E948D22888383
:102C300001C0188221960F5F1F4FEECFDF91CF9119
:102C40001F910F91FF90EF900895EF92FF920F93D5
:102C50001F93CF93DF93EA017A01E60EF71E8C01F2
:102C6000C8018796CE15DF0559F0083522E0120716
:102C700018F468810E949B2221960F5F1F4FF0CFAE
:102C8000DF91CF911F910F91FF90EF900895462F04
:102C9000843038F4753028F46F3018F4672F0C94B2
:102CA000821580E090E0089580E1089581E891E048
:102CB0000895EF92FF920F931F93CF93DF93EA0152
:102CC0007A01E60EF71E8C01C80181589D4FCE1582
:102CD000DF0569F0013821E0120720F40E948D22FF
:102CE000888301C0188221960F5F1F4FEDCFDF91BF
:102CF000CF911F910F91FF90EF900895EF92FF9267
:102D00000F931F93CF93DF93EA017A01E60EF71E2C
:102D10008C01C80181589D4FCE15DF0559F001384F
:102D200021E0120718F468810E949B2221960F5F10
:102D30001F4FEFCFDF91CF911F910F91FF90EF9039
:102D40000895CF93DF93CFE7D2E060E0CE010E94F9
:102D50009B222196C11584E0D807B9F7DF91CF9166
:102D60000895AF92BF92CF92DF92EF92FF920F93AE
:102D70001F93CF93DF9300D000D0CDB7DEB7F82EEE
:102D80002FE0281708F478C08FEF93E00E948D227F
:102D9000811172C00FE712E0FF2071F0011584E08D
:102DA000180709F469C0C8010E948D22811101C071
:102DB000FA940F5F1F4FF0CF19821A821B821C8278
:102DC000CC24CA947801EFEFEE1AFE0AC8010E94E3
:102DD0008D2289831A82882309F44EC0813009F03C
:102DE00046C05801F2E0AF0EB11CC7010E948D220F
:102DF0008A83882309F440C09FEF980F933060F4D2
:102E0000780123E0E20EF11CC5010E948D228B8324
:102E100081112DC08701D6CF843011F07501FACF12
:102E2000C5010E948D22D82E780184E0E80EF11CA5
:102E3000C80103960E948D22DD20F1F08823E1F085
:102E4000282F30E021503109C29EA001C39E500DB1
:102E500011248D2D90E00197840F951F0197D0F2DA
:102E6000EFE9FFE03197F1F700C00000F7CFCE01A6
:102E700001960E94BC04CECF0F900F900F900F9040
:102E8000DF91CF911F910F91FF90EF90DF90CF9046
:102E9000BF90AF900895CF93DF93EC01FB01828147
:102EA000882309F426C1C330FDE5DF0760F4CA3F7B
:102EB0009CE5D90768F49E0122503C452431310538
:102EC00008F018C105C0C136EDE5DE0709F012C1F2
:102ED0000E94E30E9093340280933302C031FCE5EC
:102EE000DF0709F4CAC008F041C0C8309CE5D90723
:102EF00009F4A4C0F0F4C430FCE5DF0709F48CC089
:102F000068F4C2309CE5D90709F482C0C330DC45BF
:102F100009F0E5C0809133028260DFC0C630FCE575
:102F2000DF0709F483C008F085C080913302886010
:102F3000D4C0CC309CE5D90709F490C068F4CA30FD
:102F4000FCE5DF0709F47EC008F084C00E94720827
:102F5000809133028068C1C0CE309CE5D90709F466
:102F600081C008F086C08091330294C0CC3FFCE55C
:102F7000DF0709F47BC038F5C4319CE5D90709F4B3
:102F80009AC058F4C231FCE5DF0709F47AC008F0B2
:102F90007EC0809133028F7BA0C0CA3F9CE5D907D9
:102FA000F1F108F03FC0C531DC4509F098C08091CF
:102FB000330282FB222720F991E0922790FB82F9CD
:102FC00090FB83F98AC0C1158DE5D80709F467C065
:102FD00050F480913402CE3FECE5DE07C1F108F0F9
:102FE0005BC08D7F65C0C2308DE5D80709F471C024
:102FF00008F46DC0C136DD4509F071C0809133021F
:1030000084FB222720F991E0922790FB84F965C088
:1030100080913302816061C08091330216C080913B
:10302000340216C080913402826042C08091330223
:10303000806153C08091330280624FC0809133021F
:1030400080644BC0809133028860846046C0826097
:1030500081602EC0809133028E7F3FC08091330209
:103060008D7F3BC080913302877F37C080913402CF
:1030700014C0809133028F7E30C0809133028F7DE7
:103080002CC00E947208809133028F7726C08091F5
:103090003302877F8B7F21C08D7F8E7F09C0809117
:1030A0003402982F909591708E7F892B90FB81F937
:1030B0008093340214C00E9472088091330287FB0F
:1030C000222720F991E0922790FB87F906C081E042
:1030D00001C080E00E94790F02C08093330280918A
:1030E0003302909134020E94F40E0E94720880E034
:1030F00001C081E0DF91CF910895CF93DF938631B6
:103100009C4541F5EB010E94B00D982F8A812091DA
:10311000020130910301882379F09A7A81E009F461
:1031200080E080931A02911102C069E201C065E358
:10313000C9010E94021A0AC080911A02811102C0BC
:1031400069E201C065E3C9010E94041A0E94110EE0
:1031500080E001C081E0DF91CF9108950F931F932C
:10316000CF93DF93C42FD22FFC0182818823C9F033
:1031700040931D020E94A11A90931C0280931B028F
:1031800080E28C0F883008F057C0C77081E001C022
:10319000880FCA95EAF7DF91CF911F910F910C9498
:1031A000CE0580911D02481330C080911B02909182
:1031B0001C020E94B91A883C910538F510E21D0FD7
:1031C000CD17B9F080E28C0F883040F4C77081E0F1
:1031D00001C0880FCA95EAF70E94D505183028F576
:1031E00081E09D2F977001C0880F9A95EAF70E94A1
:1031F000CE05802F0E94C5051830F0F4D77081E00D
:1032000001C0880FDA95EAF70AC080E28C0F883097
:1032100098F4C77081E001C0880FCA95EAF7DF9182
:10322000CF911F910F910C94D505802FDF91CF91F5
:103230001F910F910C94C505DF91CF911F910F91B4
:1032400008950F939C01CB01233F4CE5340731F1E6
:1032500088F4283DFCE53F07D9F0293D4CE53407CB
:1032600079F1273D3C45A9F506E221EE41EE67EDF7
:103270007CE52BC0253FFCE53F07E1F0A8F0263FA9
:103280003C4539F507E225EE46EE66EF7CE51DC0CC
:1032900007E225EE45EE68ED7CE517C006E221EE7B
:1032A00040EE63EF7CE511C007E225EE44EE64EFEB
:1032B0007CE50BC006E221EE42EE65EF7CE505C041
:1032C00008E221E045EE69ED7CE50E94AE1880E061
:1032D00008C0FC018281882319F010921D0201C0F0
:1032E00081E00F910895909397018093960108953E
:1032F00090932302809322020895E0912202F0919C
:103300002302309721F00190F081E02D099480E0B4
:103310000895E0912202F0912302309721F002807B
:10332000F381E02D0994089520912002309121022B
:103330002817390771F09093210280932002E091C1
:103340002202F0912302309721F00680F781E02DD0
:103350000994089520911E0230911F022817390701
:1033600071F090931F0280931E02E0912202F0916F
:103370002302309721F00084F185E02D099408950F
:10338000FC01329697E080E0915029F021912223B0
:10339000D9F38F5FF9CF0895662349F0FC01329687
:1033A00008962191621729F0E817F907D1F780E014
:1033B000089581E008959C01FC0132969FEF80E022
:1033C0004191461789F09F3F19F4411101C0982F90
:1033D0008F5F8630A9F79F3F39F0F901E90FF11DA2
:1033E00097FDFA956283089508959C012A5F3F4FE7
:1033F000FC014281461301C0128201968217930795
:10340000B9F708950C94DB190C94F519029626E08F
:10341000FC0111922A95E9F7089508950C940D1A6C
:1034200083E0809324020C940E1A811102C081E083
:1034300001C082E0809324020C940E1A0C94151A99
:1034400081E0809324020C940E1A0C94201A0895A3
:1034500080915102843031F10E9470031092250254
:1034600020E488E190E00FB6F894A895809360007E
:103470000FBE2093600083B7817F846083BF83B7D2
:10348000816083BF7894889583B78E7F83BF0FB6A2
:10349000F894A895809160008861809360001092F4
:1034A00060000FBE089508950C94531ACF930E94A4
:1034B000541A0E947A130E94531AC0E08C2F0E9463
:1034C000A412892B29F4CF5FC530C1F780E001C079
:1034D00081E0CF9108950E9472080C94E7031F9237
:1034E0000F920FB60F9211248F939F93AF93BF93B8
:1034F00080912502811113C08091490290914A0266
:10350000A0914B02B0914C024196A11DB11D809338
:10351000490290934A02A0934B02B0934C02BF9190
:10352000AF919F918F910F900FBE0F901F901895A4
:1035300082E084BD93E095BD9AEF97BD80936E00C5
:1035400008952FB7F8948091490290914A02A09172
:103550004B02B0914C022FBF08952FB7F8946091A1
:10356000490270914A0280914B0290914C022FBF08
:1035700008959C014FB7F8948091490290914A02B6
:10358000A0914B02B0914C024FBF821B930B089548
:1035900078941F920F920FB60F9211248F939F93DE
:1035A000AF93BF938091490290914A02A0914B0240
:1035B000B0914C020196A11DB11D809349029093D8
:1035C0004A02A0934B02B0934C02BF91AF919F91DE
:1035D0008F910F900FBE0F901F90189581E08093F0
:1035E000E00080E28093D8001092C9008FE19EE451
:1035F0000197F1F700C0000087E090EBDC018093B9
:103600005A0290935B02A0935C02B0935D029CE02F
:1036100088E10FB6F894A895809360000FBE909350
:103620006000FFCF8091310208950895CF93DF931A
:1036300021E02093E9002FEF3091E800215035FD83
:1036400006C035ED3A95F1F700002111F5CF209134
:10365000E80025FF14C0EC0140E050E068E070E0B5
:103660000E948A1D8091E8008E778093E80088E0B0
:10367000FE01A9E2B2E001900D928A95E1F7DF9197
:10368000CF910895809326027093280260932702B9
:10369000809151028430F9F48093E9008FEF90918A
:1036A000E800815095FD06C095ED9A95F1F7000070
:1036B0008111F5CF8091E80085FF0DC040E050E01A
:1036C00063E070E086E292E00E948A1D8091E8004B
:1036D0008E778093E8000895BC0184E00C94421B2F
:1036E000BC0183E00C94421B0895CF93603219F51E
:1036F000209151022430F9F4C091E900CF7030914B
:10370000EC00232F217030FD20E8C22B22E0209313
:10371000E9002091E80020FF0BC040E050E060E2AB
:1037200070E00E948A1D8091E8008E778093E80007
:10373000CF70C093E900CF9108958091500281111C
:1037400009C00E94661F0E94C31F8091E20084602E
:103750008093E20008951092500208950C94251A67
:1037600060914D0281E0611101C080E00C94101A5B
:103770009091510281E0943009F080E060914D0217
:103780000C94151A42E061EC81E00E94DF1E42E2D7
:1037900061EC84E00E94DF1E42E261EC82E00E9464
:1037A000DF1E42E260EC83E00E94DF1E9091510236
:1037B00081E0943009F080E060914D020C941E1A73
:1037C00080915302833009F463C030F4813071F08A
:1037D000823009F49CC008958A3009F488C08B3087
:1037E00009F46EC0893009F0AAC020C0809152024D
:1037F000813A09F0A4C08091E800877F8093E800B7
:103800008091560290915702892B21F468E089E259
:1038100092E003C060E080E090E070E00E94201E33
:103820008091E8008B778093E800089580915202A0
:10383000813209F084C0809156029091570200971E
:1038400019F0029709F07BC08091E800877F809390
:10385000E8008091E80082FD05C08091510281114D
:10386000F8CF6DC02091F3008091F20090E0922B90
:10387000029731F48091F100813011F0863021F40B
:103880008091F100809331028091E8008B7753C0E2
:1038900080915202813A09F052C080915602909173
:1038A0005702892B09F04BC08091E800877F8093F5
:1038B000E8008091E80080FFFCCF8091100136C0C5
:1038C000809152028132D9F580915602909157022F
:1038D000892BA9F58091E800877F8093E8000E94FA
:1038E000141F80915402809310010C9472088091EF
:1038F0005202813221F58091E800877F8093E800B1
:103900000E94141F80915502809332020895809185
:103910005202813AA1F48091E800877F8093E80009
:103920008091E80080FFFCCF809132028093F1000B
:103930008091E8008E778093E8000C94141F08951E
:1039400084B7877F84BF0FB6F894A89580916000F4
:10395000886180936000109260000FBE90E080E864
:103960000FB6F89480936100909361000FBE0C94A1
:10397000201A0E94661F0E94C31FE2EEF0E08081C1
:103980008460808378940C94582284E091E00C94B5
:103990007819809151028530A9F4809151028530C7
:1039A00079F40E94281A80914F028823B1F30E9473
:1039B000561A882391F30E94741D0E947208EDCF5D
:1039C0000C946B1A0895CF93DF93CDB7DEB7A09711
:1039D0000FB6F894DEBF0FBECDBF80915102843088
:1039E00011F583E08093E9008091E80082FF1BC01D
:1039F0008091E80085FF0AC040E050E060E270E09E
:103A0000CE0101960E94D51D91E001C090E0809109
:103A1000E8008B778093E800992329F060E2CE01DB
:103A200001960E94B214A0960FB6F894DEBF0FBEA6
:103A3000CDBFDF91CF9108950C941E1D292F332700
:103A400023303105C9F060F42130310581F0223096
:103A5000310509F041C08BE590E02AE434E040C034
:103A600021323105E1F02232310531F135C082E1F8
:103A700090E025EA34E034C099278130910549F07F
:103A800028F0029749F5EAE2F4E005C0E6E4F4E044
:103A900002C0ECE3F4E0849190E09F0121C0633028
:103AA0007105D0F4660F771FFB01E057FE4F2081B0
:103AB000318189E090E014C06330710568F4FB0146
:103AC000EE0FFF1FE657FE4F20813181FB01E957C2
:103AD000FE4F808190E004C080E090E020E030E084
:103AE000FA0131832083089580E189BD82E189BD97
:103AF00009B400FEFDCF8091D8008F7D8093D8005F
:103B00008091E00082608093E0008091E00081FD80
:103B1000FCCF0895CF92DF92EF92FF920F931F9305
:103B2000CF93DF93EC018B017A010E94331F811147
:103B300033C0E114F10439F0F70180819181081B51
:103B4000190BC80FD91FC12CD12C0115110519F162
:103B50008091E80085FD16C08091E8008E77809303
:103B6000E800E114F10449F0F70180819181C80E69
:103B7000D91ED182C08285E00FC00E94331F8823E6
:103B800021F30AC089918093F10001501109FFEFE0
:103B9000CF1ADF0ADACF80E0DF91CF911F910F912A
:103BA000FF90EF90DF90CF900895CF92DF92EF9249
:103BB000FF920F931F93CF93DF93EC018B017A0158
:103BC0000E94331F811133C0E114F10439F0F70171
:103BD00080819181081B190BC80FD91FC12CD12CD2
:103BE0000115110519F18091E80085FD16C080913D
:103BF000E8008B778093E800E114F10449F0F701C5
:103C000080819181C80ED91ED182C08285E00FC00B
:103C10000E94331F882321F30AC08091F100899309
:103C200001501109FFEFCF1ADF0ADACF80E0DF91F0
:103C3000CF911F910F91FF90EF90DF90CF9008955B
:103C400020915802309159022617370748F0611524
:103C5000710539F42091E8002E772093E80001C027
:103C6000B901FC0120E06115710579F180915102E3
:103C70008823F1F18530F1F18091E80083FD3CC0AB
:103C80008091E80082FD2EC08091E80080FFEBCF9C
:103C90002091F3008091F20090E0922B6115710564
:103CA00051F08830910538F421912093F100615052
:103CB00071090196F3CF21E0089709F020E0809187
:103CC000E8008E778093E800CECF2111CFCF0AC0D5
:103CD00080915102882361F0853061F08091E80085
:103CE00083FD0AC08091E80082FFF2CF80E0089552
:103CF00082E0089583E0089581E0089520915802BC
:103D0000309159022617370748F06115710539F4CB
:103D10002091E8002E772093E80001C0B901FC0152
:103D200020E06115710591F180915102882309F419
:103D300040C0853009F43FC08091E80083FD3DC05C
:103D40008091E80082FD2FC08091E80080FFE9CFDC
:103D50002091F3008091F20090E0922B61157105A3
:103D600059F08830910540F424912093F100319668
:103D7000615071090196F2CF21E0089709F020E027
:103D80008091E8008E778093E800CBCF2111CCCFD3
:103D90000AC080915102882361F0853061F08091E2
:103DA000E80083FD0AC08091E80082FFF2CF80E046
:103DB000089582E0089583E0089581E00895982FA2
:103DC000973068F59093E900981739F07091EC00FE
:103DD0002091ED005091F00003C0242F762F50E089
:103DE00021FD02C09F5FECCF3091EB003E7F30930E
:103DF000EB003091ED003D7F3093ED003091EB0012
:103E000031603093EB007093EC002093ED00509301
:103E1000F0002091EE0027FDE5CF80E008958F703F
:103E20008093E90081E008958091520287FF11C0DC
:103E30008091E80082FD05C0809151028111F8CF88
:103E400011C08091E8008B770BC0809151028823CC
:103E500049F08091E80080FFF8CF8091E8008E77EC
:103E60008093E80008952091E4003091E50095E604
:103E70004091EC00842F817040FF23C08091E800C6
:103E800080FD1DC080915102882399F0853099F002
:103E90008091EB0085FD11C04091E4005091E50058
:103EA0002417350729F3915011F09A01E1CF84E0EE
:103EB000089582E0089583E0089581E0089580E008
:103EC00008954091E80042FFDDCF08950E94D41F7D
:103ED0000E94DC1FE0EEF0E0808181608083E8EDED
:103EE000F0E080818F77808319BCA7EDB0E08C91E2
:103EF0008E7F8C9380818F7E8083109250020895F4
:103F00000F931F93CF93DF930E94D41F0E94DC1F57
:103F1000C8EDD0E088818F77888388818068888326
:103F200088818F7D888319BC1092510210924D02B6
:103F300010924F0210924E0200EE10E0F8018081C4
:103F40008B7F808388818160888342E060E080E0AD
:103F50000E94DF1EE1EEF0E080818E7F8083E2EE42
:103F6000F0E0808181608083808188608083F801B7
:103F700080818E7F8083888180618883DF91CF916B
:103F80001F910F910895E8EDF0E080818F7E80838E
:103F9000E7EDF0E080818160808384E082BF81E092
:103FA000809350020C94801FE8EDF0E080818E7FBA
:103FB00080831092E20008951092DA001092E100DE
:103FC00008951F920F920FB60F9211242F933F93D3
:103FD0004F935F936F937F938F939F93AF93BF9311
:103FE000EF93FF938091E10082FF0BC08091E2008C
:103FF00082FF07C08091E1008B7F8093E1000E94E7
:1040000057228091DA0080FF1FC08091D80080FF86
:104010001BC08091DA008E7F8093DA008091D900F6
:1040200080FF0DC080E189BD82E189BD09B400FE39
:10403000FDCF81E0809351020E949D1B05C019BCF9
:10404000109251020E94AB1B8091E10080FF19C0C9
:104050008091E20080FF15C08091E2008E7F809306
:10406000E2008091E20080618093E2008091D800BC
:1040700080628093D80019BC85E0809351020E9431
:10408000B01B8091E10084FF30C08091E20084FF8A
:104090002CC080E189BD82E189BD09B400FEFDCF5D
:1040A0008091D8008F7D8093D8008091E1008F7E31
:1040B0008093E1008091E2008F7E8093E200809106
:1040C000E20081608093E20080914D02882311F02C
:1040D00084E007C08091E30087FD02C081E001C059
:1040E00083E0809351020E94B81B8091E10083FF1E
:1040F00029C08091E20083FF25C08091E100877F85
:104100008093E10082E08093510210924D028091F1
:10411000E1008E7F8093E1008091E2008E7F8093AA
:10412000E2008091E20080618093E20042E060E082
:1041300080E00E94DF1E8091F00088608093F00094
:104140000E94AE1BFF91EF91BF91AF919F918F9114
:104150007F916F915F914F913F912F910F900FBE83
:104160000F901F9018951F920F920FB60F92112467
:104170002F933F934F935F936F937F938F939F936F
:10418000AF93BF93CF93DF93EF93FF93C091E90079
:10419000CF708091EC00D82FD17080FDD0E81092C4
:1041A000E9008091F000877F8093F00078940E946E
:1041B000F7201092E9008091F00088608093F00071
:1041C000CD2BCF70C093E900FF91EF91DF91CF919C
:1041D000BF91AF919F918F917F916F915F914F911F
:1041E0003F912F910F900FBE0F901F9018951F9326
:1041F000CF93DF93CDB7DEB7AA970FB6F894DEBFA3
:104200000FBECDBFE2E5F2E08091F100819322E0A4
:10421000EA35F207C9F70E94E01B8091E80083FFAE
:104220002EC18091520290915302492F50E04A30A2
:10423000510508F024C1FA01E957FF4F0C9473228D
:10424000803821F0823809F01AC108C080914E02EE
:1042500090914F02992389F082600FC0809156029D
:104260008F70873008F00BC18093E9008091EB00DC
:1042700085FB882780F91092E9009091E800977FEC
:104280009093E8008093F1001092F100D1C0282FA4
:104290002D7F09F0F4C0882319F0823061F0EFC05F
:1042A00080915402813009F0EAC0933009F080E037
:1042B00080934F022EC08091540281112AC08091B8
:1042C00056028F702FEF280F263008F0D8C0809349
:1042D000E9002091EB0020FF1CC0933021F4809175
:1042E000EB00806214C09091EB0090619093EB0022
:1042F00021E030E0A90102C0440F551F8A95E2F782
:104300004093EA001092EA008091EB00886080936D
:10431000EB001092E9008091E800877F8093E8002D
:104320000E94141FACC08111AAC0109154021F77C3
:104330008091E3008078812B8093E3008091E800F6
:10434000877F8093E8000E94141F8091E80080FF1F
:10435000FCCF8091E30080688093E300111102C0DC
:1043600082E001C083E08093510289C0805882308E
:1043700008F085C080915402909155028C3D53E025
:10438000950779F583E08A838AE289834FB7F894A9
:10439000DE01139620E03EE051E2E32FF0E050937F
:1043A0005700E49120FF03C0E295EF703F5FEF708C
:1043B0008E2F90E0EA3010F0C79601C0C0968D9322
:1043C0009D932F5F243149F74FBF8091E800877F8D
:1043D0008093E8006AE270E0CE0101960E94201E00
:1043E00016C06091560270915702AE014F5F5F4F49
:1043F0000E941C1DBC01892B09F441C09091E8006A
:10440000977F9093E80089819A810E947E1E809117
:10441000E8008B778093E80032C0803881F5809186
:10442000E800877F8093E80080914D028093F1003F
:104430008091E8008E7772CF811121C08091540263
:104440009091550299270297D4F48091E800877FD4
:104450008093E8008091540280934D020E94141FC3
:1044600080914D02811106C08091E30087FD02C05A
:1044700081E001C084E0809351020E94C21B8091C0
:10448000E80083FF0AC08091E800877F8093E800FE
:104490008091EB0080628093EB00AA960FB6F894AF
:1044A000DEBF0FBECDBFDF91CF911F91089508955C
:1044B000CF93809151028823A1F0C091E900CF7081
:1044C0009091EC00892F817090FD80E8C82B1092AC
:1044D000E9008091E80083FD0E94F720CF70C0932F
:1044E000E900CF910895EE0FFF1F0590F491E02DA4
:1044F00009946927962769277827872778270895B9
:10450000FB01DC0104C08D910190801921F4415020
:104510005040C8F7881B990B0895F999FECF92BDBA
:1045200081BDF89A992780B50895A8E1B0E042E0EE
:1045300050E00C94C122262FF999FECF92BD81BD87
:10454000F89A019700B4021639F01FBA20BD0FB6D1
:10455000F894FA9AF99A0FBE08950396272F0E94AD
:104560009C220E949B22252F0E949C22242F0C9487
:104570009C220196272F0E949C220C949B22DC01F6
:10458000CB01FC01F999FECF06C0F2BDE1BDF89A5E
:10459000319600B40D9241505040B8F70895F89408
:0245A000FFCF4B
:1045A200C800F801121B161B741B701B6C1B151B19
:1045B20001E200E900EA00B500B600B700CD0083D1
:1045C20001CC008A019201940121022302240225D6
:1045D20002260227022A02B300B4006F0070008193
:1045E2008283E200E900EA00B500B600B700CD0020
:1045F2008301CC008A019201940121022302240248
:104602002502260227022A02B300B4006F007000BE
:104612008182839796943435366667F7F6F5F4F11E
:10462200F0C690919293954022320B05B704D904BB
:064632005C047504950410
:00000001FF
